{
  "address": "0xef1e49862C584AD68EADbB7e66368Aa5fde79062",
  "abi": [
    {
      "inputs": [
        {
          "internalType": "uint256",
          "name": "_curationFee",
          "type": "uint256"
        },
        {
          "internalType": "address",
          "name": "_erc1155Address",
          "type": "address"
        },
        {
          "internalType": "address",
          "name": "_linkToken",
          "type": "address"
        }
      ],
      "stateMutability": "nonpayable",
      "type": "constructor"
    },
    {
      "anonymous": false,
      "inputs": [
        {
          "indexed": true,
          "internalType": "bytes32",
          "name": "id",
          "type": "bytes32"
        }
      ],
      "name": "ChainlinkCancelled",
      "type": "event"
    },
    {
      "anonymous": false,
      "inputs": [
        {
          "indexed": true,
          "internalType": "bytes32",
          "name": "id",
          "type": "bytes32"
        }
      ],
      "name": "ChainlinkFulfilled",
      "type": "event"
    },
    {
      "anonymous": false,
      "inputs": [
        {
          "indexed": true,
          "internalType": "bytes32",
          "name": "id",
          "type": "bytes32"
        }
      ],
      "name": "ChainlinkRequested",
      "type": "event"
    },
    {
      "anonymous": false,
      "inputs": [
        {
          "indexed": true,
          "internalType": "uint256",
          "name": "_marketItemId",
          "type": "uint256"
        },
        {
          "indexed": true,
          "internalType": "uint256",
          "name": "_tokenId",
          "type": "uint256"
        },
        {
          "indexed": false,
          "internalType": "uint256",
          "name": "_amount",
          "type": "uint256"
        },
        {
          "indexed": false,
          "internalType": "uint256",
          "name": "_timestamp",
          "type": "uint256"
        },
        {
          "indexed": false,
          "internalType": "address",
          "name": "_erc20Address",
          "type": "address"
        },
        {
          "indexed": false,
          "internalType": "bool",
          "name": "_isBond",
          "type": "bool"
        },
        {
          "indexed": false,
          "internalType": "address",
          "name": "_user",
          "type": "address"
        }
      ],
      "name": "NFTBond",
      "type": "event"
    },
    {
      "anonymous": false,
      "inputs": [
        {
          "indexed": true,
          "internalType": "uint256",
          "name": "_marketItemId",
          "type": "uint256"
        },
        {
          "indexed": true,
          "internalType": "address",
          "name": "_contractAddress",
          "type": "address"
        },
        {
          "indexed": true,
          "internalType": "uint256",
          "name": "_tokenId",
          "type": "uint256"
        },
        {
          "indexed": false,
          "internalType": "address",
          "name": "_seller",
          "type": "address"
        },
        {
          "indexed": false,
          "internalType": "address",
          "name": "_newOwner",
          "type": "address"
        },
        {
          "indexed": false,
          "internalType": "uint256",
          "name": "_price",
          "type": "uint256"
        }
      ],
      "name": "NFTBought",
      "type": "event"
    },
    {
      "anonymous": false,
      "inputs": [
        {
          "indexed": true,
          "internalType": "uint256",
          "name": "_marketItemId",
          "type": "uint256"
        },
        {
          "indexed": true,
          "internalType": "address",
          "name": "_contractAddress",
          "type": "address"
        },
        {
          "indexed": true,
          "internalType": "uint256",
          "name": "_tokenId",
          "type": "uint256"
        },
        {
          "indexed": false,
          "internalType": "address",
          "name": "_seller",
          "type": "address"
        },
        {
          "indexed": false,
          "internalType": "address",
          "name": "_newOwner",
          "type": "address"
        },
        {
          "indexed": false,
          "internalType": "uint256",
          "name": "_price",
          "type": "uint256"
        },
        {
          "indexed": false,
          "internalType": "uint256",
          "name": "_timestampNFT",
          "type": "uint256"
        }
      ],
      "name": "NFTListed",
      "type": "event"
    },
    {
      "anonymous": false,
      "inputs": [
        {
          "indexed": true,
          "internalType": "uint256",
          "name": "_marketItemId",
          "type": "uint256"
        },
        {
          "indexed": true,
          "internalType": "uint256",
          "name": "_tokenId",
          "type": "uint256"
        },
        {
          "indexed": false,
          "internalType": "uint256",
          "name": "_amount",
          "type": "uint256"
        },
        {
          "indexed": false,
          "internalType": "uint256",
          "name": "_timestamp",
          "type": "uint256"
        },
        {
          "indexed": false,
          "internalType": "address",
          "name": "_erc20Address",
          "type": "address"
        },
        {
          "indexed": false,
          "internalType": "bool",
          "name": "_isBond",
          "type": "bool"
        },
        {
          "indexed": false,
          "internalType": "address",
          "name": "_user",
          "type": "address"
        }
      ],
      "name": "NFTUnbond",
      "type": "event"
    },
    {
      "anonymous": false,
      "inputs": [
        {
          "indexed": true,
          "internalType": "address",
          "name": "previousOwner",
          "type": "address"
        },
        {
          "indexed": true,
          "internalType": "address",
          "name": "newOwner",
          "type": "address"
        }
      ],
      "name": "OwnershipTransferred",
      "type": "event"
    },
    {
      "anonymous": false,
      "inputs": [
        {
          "indexed": false,
          "internalType": "uint256",
          "name": "_votingPower",
          "type": "uint256"
        }
      ],
      "name": "VotingPower",
      "type": "event"
    },
    {
      "inputs": [],
      "name": "amountStr",
      "outputs": [
        {
          "internalType": "string",
          "name": "",
          "type": "string"
        }
      ],
      "stateMutability": "view",
      "type": "function"
    },
    {
      "inputs": [
        {
          "internalType": "uint256",
          "name": "marketItemId",
          "type": "uint256"
        },
        {
          "internalType": "uint256",
          "name": "amount",
          "type": "uint256"
        },
        {
          "internalType": "address",
          "name": "erc20Address",
          "type": "address"
        }
      ],
      "name": "bondNFT",
      "outputs": [],
      "stateMutability": "nonpayable",
      "type": "function"
    },
    {
      "inputs": [
        {
          "internalType": "uint256",
          "name": "marketItemId",
          "type": "uint256"
        }
      ],
      "name": "buyNFT",
      "outputs": [],
      "stateMutability": "payable",
      "type": "function"
    },
    {
      "inputs": [
        {
          "internalType": "uint256",
          "name": "marketItemId",
          "type": "uint256"
        }
      ],
      "name": "claimReward",
      "outputs": [],
      "stateMutability": "nonpayable",
      "type": "function"
    },
    {
      "inputs": [
        {
          "internalType": "uint256",
          "name": "_amount",
          "type": "uint256"
        }
      ],
      "name": "eighthRoot",
      "outputs": [
        {
          "internalType": "bytes32",
          "name": "requestId",
          "type": "bytes32"
        }
      ],
      "stateMutability": "nonpayable",
      "type": "function"
    },
    {
      "inputs": [],
      "name": "erc1155Address",
      "outputs": [
        {
          "internalType": "address",
          "name": "",
          "type": "address"
        }
      ],
      "stateMutability": "view",
      "type": "function"
    },
    {
      "inputs": [
        {
          "internalType": "bytes32",
          "name": "_requestId",
          "type": "bytes32"
        },
        {
          "internalType": "uint256",
          "name": "_volume",
          "type": "uint256"
        }
      ],
      "name": "fulfill",
      "outputs": [],
      "stateMutability": "nonpayable",
      "type": "function"
    },
    {
      "inputs": [],
      "name": "getCurationFee",
      "outputs": [
        {
          "internalType": "uint256",
          "name": "",
          "type": "uint256"
        }
      ],
      "stateMutability": "view",
      "type": "function"
    },
    {
      "inputs": [
        {
          "internalType": "address",
          "name": "_contractAddress",
          "type": "address"
        },
        {
          "internalType": "uint256",
          "name": "_tokenId",
          "type": "uint256"
        },
        {
          "internalType": "string",
          "name": "_metadataUri",
          "type": "string"
        },
        {
          "internalType": "uint256",
          "name": "_price",
          "type": "uint256"
        }
      ],
      "name": "listNFT",
      "outputs": [],
      "stateMutability": "nonpayable",
      "type": "function"
    },
    {
      "inputs": [
        {
          "internalType": "uint256",
          "name": "_a",
          "type": "uint256"
        },
        {
          "internalType": "uint256",
          "name": "_n",
          "type": "uint256"
        },
        {
          "internalType": "uint256",
          "name": "_dp",
          "type": "uint256"
        },
        {
          "internalType": "uint256",
          "name": "_maxIts",
          "type": "uint256"
        }
      ],
      "name": "nthRoot",
      "outputs": [
        {
          "internalType": "uint256",
          "name": "",
          "type": "uint256"
        }
      ],
      "stateMutability": "pure",
      "type": "function"
    },
    {
      "inputs": [],
      "name": "owner",
      "outputs": [
        {
          "internalType": "address",
          "name": "",
          "type": "address"
        }
      ],
      "stateMutability": "view",
      "type": "function"
    },
    {
      "inputs": [],
      "name": "renounceOwnership",
      "outputs": [],
      "stateMutability": "nonpayable",
      "type": "function"
    },
    {
      "inputs": [
        {
          "internalType": "address",
          "name": "newOwner",
          "type": "address"
        }
      ],
      "name": "transferOwnership",
      "outputs": [],
      "stateMutability": "nonpayable",
      "type": "function"
    },
    {
      "inputs": [
        {
          "internalType": "uint256",
          "name": "marketItemId",
          "type": "uint256"
        }
      ],
      "name": "unbondNFT",
      "outputs": [],
      "stateMutability": "nonpayable",
      "type": "function"
    }
  ],
  "transactionHash": "0x2e6f2069b12d8108218d38125617af0ecd4235265de20022f98085f766710946",
  "args": [
    "10000000000000000",
    "0xdc5C798efC37C0fFFf808bfFD546F9D6a73781ea",
    "0x326C977E6efc84E512bB9C30f76E30c160eD06FB"
  ],
  "solcInputHash": "652127050f8f9637ef0cd547d38f962c",
  "bytecode": "0x608060405260016005553480156200001657600080fd5b5060405162002da438038062002da4833981016040819052620000399162000313565b62000044336200018e565b620000746040518060600160405280602a815260200162002d7a602a913984620001de60201b620017411760201c565b6009839055600a80546001600160a01b0319166001600160a01b038416179055620000bb81600380546001600160a01b0319166001600160a01b0392909216919091179055565b600c80546001600160a01b031916730bddcd124709acbf9bb3f824ebc61c87019888bb1790557f3262623135633366396366633433333662393530313238373266663035303932600d55662386f26fc10000600e556040805180820190915260208082527f68747470733a2f2f6170692e6d6174686a732e6f72672f76342f3f657870723d9181019182526200015491600f9162000250565b50604080518082019091526006808252655e28312f382960d01b6020909201918252620001849160109162000250565b50505050620003f1565b600080546001600160a01b038381166001600160a01b0319831681178455604051919092169283917f8be0079c531659141344cd1fd0a4f28419497f9722a3daafe3b4186f6b6457e09190a35050565b6200022b8282604051602401620001f792919062000354565b60408051601f198184030181529190526020810180516001600160e01b039081166309710a9d60e41b179091526200022f16565b5050565b80516a636f6e736f6c652e6c6f67602083016000808483855afa5050505050565b8280546200025e90620003b4565b90600052602060002090601f016020900481019282620002825760008555620002cd565b82601f106200029d57805160ff1916838001178555620002cd565b82800160010185558215620002cd579182015b82811115620002cd578251825591602001919060010190620002b0565b50620002db929150620002df565b5090565b5b80821115620002db5760008155600101620002e0565b80516001600160a01b03811681146200030e57600080fd5b919050565b6000806000606084860312156200032957600080fd5b835192506200033b60208501620002f6565b91506200034b60408501620002f6565b90509250925092565b604081526000835180604084015260005b8181101562000384576020818701810151606086840101520162000365565b8181111562000397576000606083860101525b50602083019390935250601f91909101601f191601606001919050565b600181811c90821680620003c957607f821691505b60208210811415620003eb57634e487b7160e01b600052602260045260246000fd5b50919050565b61297980620004016000396000f3fe6080604052600436106100dd5760003560e01c8063682575e41161007f578063ae169a5011610059578063ae169a501461022c578063b7ef89ba1461024c578063f2fde38b1461026c578063f4218d9a1461028c57600080fd5b8063682575e4146101d9578063715018a6146101f95780638da5cb5b1461020e57600080fd5b80634505ea00116100bb5780634505ea001461016357806351ed8288146101915780636228f7c3146101a45780636469cfac146101b957600080fd5b806305142002146100e257806335ed360c1461011f5780634357855e14610141575b600080fd5b3480156100ee57600080fd5b50600a54610102906001600160a01b031681565b6040516001600160a01b0390911681526020015b60405180910390f35b34801561012b57600080fd5b506101346102ac565b6040516101169190612641565b34801561014d57600080fd5b5061016161015c3660046123d9565b61033a565b005b34801561016f57600080fd5b5061018361017e3660046123fb565b6105fc565b604051908152602001610116565b61016161019f3660046123fb565b61070a565b3480156101b057600080fd5b50600954610183565b3480156101c557600080fd5b506101836101d4366004612466565b610903565b3480156101e557600080fd5b506101616101f43660046122e2565b610a22565b34801561020557600080fd5b50610161610c5b565b34801561021a57600080fd5b506000546001600160a01b0316610102565b34801561023857600080fd5b506101616102473660046123fb565b610cc1565b34801561025857600080fd5b5061016161026736600461242d565b610f0c565b34801561027857600080fd5b506101616102873660046122a8565b611301565b34801561029857600080fd5b506101616102a73660046123fb565b6113e3565b600b80546102b99061285c565b80601f01602080910402602001604051908101604052809291908181526020018280546102e59061285c565b80156103325780601f1061030757610100808354040283529160200191610332565b820191906000526020600020905b81548152906001019060200180831161031557829003601f168201915b505050505081565b60008281526006602052604090205482906001600160a01b031633146103cd5760405162461bcd60e51b815260206004820152602860248201527f536f75726365206d75737420626520746865206f7261636c65206f662074686560448201527f207265717565737400000000000000000000000000000000000000000000000060648201526084015b60405180910390fd5b60008181526006602052604080822080546001600160a01b03191690555182917f7cc135e0cebb02c3480ae5d74d377283180a2601f8f644edf7987b009316c63a91a2600061041d6064846126b3565b6012805460009081526014602090815260408083206011546001600160a01b0316845290915290206001015461045791600290600a610903565b61046191906126b3565b601280546000908152601460208181526040808420601180546001600160a01b0390811687529184528286206005908101899055600a549154975480885295855283872097831680885297909452948290209092015490517f731133e9000000000000000000000000000000000000000000000000000000008152600480820196909652602481019390935260448301526080606483015260848201939093527f307830300000000000000000000000000000000000000000000000000000000060a4820152929350169063731133e99060c401600060405180830381600087803b15801561054f57600080fd5b505af1158015610563573d6000803e3d6000fd5b505060125460008181526014602090815260408083206011546001600160a01b0316845282528083206005015493835260139091529020600801546105ab9350909150612676565b60125460009081526013602090815260409182902060080192909255518281527f9e0bb4afdbf87f067e4109b80b01934bfaf1e7e9560dcb90f23f17d320fb88f7910160405180910390a150505050565b6000610607826117b8565b805161061b91600b9160209091019061220f565b506000610632600d5430634357855e60e01b611915565b905061069d6040518060400160405280600381526020017f6765740000000000000000000000000000000000000000000000000000000000815250600f600b60106040516020016106859392919061257f565b60408051601f198184030181529190528391906119a6565b60408051808201909152600581527f74696d65730000000000000000000000000000000000000000000000000000006020820152670de0b6b3a7640000906106e7908390836119c9565b600c54600e54610702916001600160a01b03169084906119e7565b949350505050565b6000818152601360205260409020600681015460028201546004830154600190930154919290916001600160a01b03918216911634841461078d5760405162461bcd60e51b815260206004820152601a60248201527f56616c7565206d757374206d617463682074686520707269636500000000000060448201526064016103c4565b6000858152601360205260409081902060050180546001600160a01b0319163390811790915590516323b872dd60e01b81526001600160a01b038481166004830152602482019290925260448101859052908216906323b872dd90606401600060405180830381600087803b15801561080557600080fd5b505af1158015610819573d6000803e3d6000fd5b50505050816001600160a01b03166108fc60648661083791906126b3565b6108419087612845565b6040518115909202916000818181858888f19350505050158015610869573d6000803e3d6000fd5b506000858152601360205260409020600801546108876064866126b3565b61089191906126b3565b6000868152601360209081526040918290206009019290925580516001600160a01b0385811682523393820193909352908101869052849183169087907fd149f58da1dff89c18946d3ebf3588c7e52cb96cdbb10ca1baf80c14178f524b906060015b60405180910390a45050505050565b600060018411610915576109156128c0565b6000610922846001612676565b61092d90600a61270a565b905060008661093c878461270a565b61094691906127b2565b905081600160005b81831415801561095d57508681105b156109fd57829150600061097260018b612845565b61097c908461270a565b90508461098982856127b2565b11156109bf578961099a82876126b3565b6109a49085612845565b6109ae91906126b3565b6109b89084612845565b93506109ec565b89836109cb83886126b3565b6109d59190612845565b6109df91906126b3565b6109e99084612676565b93505b6109f582612891565b91505061094e565b600a610a0a846005612676565b610a1491906126b3565b9a9950505050505050505050565b60008111610a725760405162461bcd60e51b815260206004820152601b60248201527f5072696365206d75737420626520686967686572207468616e2030000000000060448201526064016103c4565b6040517f6352211e0000000000000000000000000000000000000000000000000000000081526004810184905233906001600160a01b03861690636352211e9060240160206040518083038186803b158015610acd57600080fd5b505afa158015610ae1573d6000803e3d6000fd5b505050506040513d601f19601f82011682018060405250810190610b0591906122c5565b6001600160a01b031614610b5b5760405162461bcd60e51b815260206004820152601f60248201527f4f6e6c7920746865206f776e65722063616e206c69737420746865204e46540060448201526064016103c4565b610b69600780546001019055565b6000610b7460075490565b60008181526013602090815260409091208281556001810180546001600160a01b038a166001600160a01b031991821617909155600282018890556004820180548216331790556005820180549091169055600681018590558551929350610be49260039091019186019061220f565b506000818152601360209081526040808320426007820181905560016008909201919091558151338152928301939093528101849052606081019190915284906001600160a01b0387169083907f7cbfcf258cc3aeee8e717152f695ef2ba70d99d7fa0ecc2147944cbdf6181b75906080016108f4565b6000546001600160a01b03163314610cb55760405162461bcd60e51b815260206004820181905260248201527f4f776e61626c653a2063616c6c6572206973206e6f7420746865206f776e657260448201526064016103c4565b610cbf6000611a17565b565b6000818152601460209081526040808320338452909152902060020154600160a01b900460ff161515600114610d395760405162461bcd60e51b815260206004820152601060248201527f55736572206973206e6f7420626f6e640000000000000000000000000000000060448201526064016103c4565b6000818152601360205260409020600501546001600160a01b0316610d5d57600080fd5b60008181526013602090815260408083206009015460148352818420338552909252822060050154610d8f91906127b2565b600a54600084815260146020908152604080832033808552925291829020600501549151637a94c56560e11b8152600481018290526024810187905260448101929092529293506001600160a01b039091169063f5298aca90606401600060405180830381600087803b158015610e0557600080fd5b505af1158015610e19573d6000803e3d6000fd5b50505060008481526014602090815260408083203380855292529182902060048082015460019092015493516323b872dd60e01b81523091810191909152602481019290925260448201929092526001600160a01b0390911691506323b872dd90606401602060405180830381600087803b158015610e9757600080fd5b505af1158015610eab573d6000803e3d6000fd5b505050506040513d601f19601f82011682018060405250810190610ecf91906123b7565b506040516001600160a01b0382169083156108fc029084906000818181858888f19350505050158015610f06573d6000803e3d6000fd5b50505050565b60008211610f5c5760405162461bcd60e51b815260206004820152601c60248201527f416d6f756e74206d75737420626520686967686572207468616e20300000000060448201526064016103c4565b6040517f70a0823100000000000000000000000000000000000000000000000000000000815233600482015282906001600160a01b038316906370a082319060240160206040518083038186803b158015610fb657600080fd5b505afa158015610fca573d6000803e3d6000fd5b505050506040513d601f19601f82011682018060405250810190610fee9190612414565b10156110625760405162461bcd60e51b815260206004820152602c60248201527f42616c616e6365206d757374206265206174206c6561737420657175616c207460448201527f6f2074686520616d6f756e74000000000000000000000000000000000000000060648201526084016103c4565b6000838152601460209081526040808320338452909152902060020154600160a01b900460ff16156110d65760405162461bcd60e51b815260206004820152601660248201527f5573657220697320616c726561647920626f6e6465640000000000000000000060448201526064016103c4565b6000838152601360205260409020600501546001600160a01b03161561113e5760405162461bcd60e51b815260206004820152601f60248201527f546865204e465420686173206265656e20616c726561647920626f756768740060448201526064016103c4565b6040516323b872dd60e01b8152336004820152306024820152604481018390526001600160a01b038216906323b872dd90606401602060405180830381600087803b15801561118c57600080fd5b505af11580156111a0573d6000803e3d6000fd5b505050506040513d601f19601f820116820180604052508101906111c491906123b7565b50600083815260146020908152604080832033808552818452828520600181018890556002808201805460ff60a01b1985167fffffffffffffffffffffff00000000000000000000000000000000000000000090911617600160a01b179055898752601386529386209384015481556004810180546001600160a01b0389166001600160a01b031991821617909155426003909201918255601180549091168317905560128990556007909301549085529252546112829190612845565b905061128d816105fc565b5060008481526013602090815260409182902060020154825186815242928101929092526001600160a01b0385168284015260016060830152336080830152915186917f18ee6287d3eaab175be3159bfb465d3a09c7b6dcdb93de9bf740c85d4da71230919081900360a00190a350505050565b6000546001600160a01b0316331461135b5760405162461bcd60e51b815260206004820181905260248201527f4f776e61626c653a2063616c6c6572206973206e6f7420746865206f776e657260448201526064016103c4565b6001600160a01b0381166113d75760405162461bcd60e51b815260206004820152602660248201527f4f776e61626c653a206e6577206f776e657220697320746865207a65726f206160448201527f646472657373000000000000000000000000000000000000000000000000000060648201526084016103c4565b6113e081611a17565b50565b6000818152601460209081526040808320338452909152902060020154600160a01b900460ff16151560011461145b5760405162461bcd60e51b815260206004820152601060248201527f55736572206973206e6f7420626f6e640000000000000000000000000000000060448201526064016103c4565b60008181526014602090815260408083203380855290835281842060050154600a5486865260138552948390206002015483517efdd58e00000000000000000000000000000000000000000000000000000000815260048101939093526024830152915191936001600160a01b03169262fdd58e92604480840193829003018186803b1580156114ea57600080fd5b505afa1580156114fe573d6000803e3d6000fd5b505050506040513d601f19601f820116820180604052508101906115229190612414565b1461152c57600080fd5b600081815260146020908152604080832033808552925291829020600181015460049182015493516323b872dd60e01b8152309281019290925260248201929092526044810182905290916001600160a01b0316906323b872dd90606401602060405180830381600087803b1580156115a457600080fd5b505af11580156115b8573d6000803e3d6000fd5b505050506040513d601f19601f820116820180604052508101906115dc91906123b7565b5060008281526014602090815260408083203380855292529182902060028101805460ff60a01b19169055600a546005909101549251637a94c56560e11b815260048101929092526024820185905260448201929092526001600160a01b039091169063f5298aca90606401600060405180830381600087803b15801561166257600080fd5b505af1158015611676573d6000803e3d6000fd5b50505060008381526014602090815260408083203384528252808320600501548684526013909252909120600801546116af9250612845565b60008381526013602090815260408083206008810194909455600290930154601482528383203380855290835284842060040154855187815242948101949094526001600160a01b031683860152606083019390935260808201929092529151909184917fa1002c2ee5f7b22f1c4b3355457623ae93a326bef0a2478d1499df6c78bea6ed9181900360a00190a35050565b6117b48282604051602401611757929190612654565b60408051601f198184030181529190526020810180517bffffffffffffffffffffffffffffffffffffffffffffffffffffffff167f9710a9d000000000000000000000000000000000000000000000000000000000179052611a67565b5050565b6060816117f857505060408051808201909152600181527f3000000000000000000000000000000000000000000000000000000000000000602082015290565b8160005b8115611822578061180c81612891565b915061181b9050600a836126b3565b91506117fc565b60008167ffffffffffffffff81111561183d5761183d612918565b6040519080825280601f01601f191660200182016040528015611867576020820181803683370190505b509050815b851561190c5761187d600182612845565b9050600061188c600a886126b3565b61189790600a6127b2565b6118a19088612845565b6118ac90603061268e565b905060008160f81b9050808484815181106118c9576118c9612902565b60200101907effffffffffffffffffffffffffffffffffffffffffffffffffffffffffffff1916908160001a905350611903600a896126b3565b9750505061186c565b50949350505050565b6119536040805160a0810182526000808252602080830182905282840182905260608084018390528451808601909552845283015290608082015290565b6119916040805160a0810182526000808252602080830182905282840182905260608084018390528451808601909552845283015290608082015290565b61199d81868686611a88565b95945050505050565b60808301516119b59083611b13565b60808301516119c49082611b13565b505050565b60808301516119d89083611b13565b60808301516119c49082611b2a565b600061070284848460017f4042994600000000000000000000000000000000000000000000000000000000611b8a565b600080546001600160a01b038381166001600160a01b0319831681178455604051919092169283917f8be0079c531659141344cd1fd0a4f28419497f9722a3daafe3b4186f6b6457e09190a35050565b80516a636f6e736f6c652e6c6f67602083016000808483855afa5050505050565b611ac66040805160a0810182526000808252602080830182905282840182905260608084018390528451808601909552845283015290608082015290565b611ad68560800151610100611df6565b50509183526001600160a01b031660208301527fffffffff0000000000000000000000000000000000000000000000000000000016604082015290565b611b208260038351611e61565b6119c48282611f2f565b67ffffffffffffffff19811215611b45576117b48282611f5d565b67ffffffffffffffff811315611b5f576117b48282611f9f565b60008112611b73576117b482600083611e61565b6117b4826001611b85846000196127d1565b611e61565b6005546040516bffffffffffffffffffffffff193060601b166020820152603481019190915260009060540160408051808303601f19018152918152815160209283012060055460608901526000818152600690935281832080546001600160a01b0319166001600160a01b038b16179055905190925082917fb5e6e01e79f91267dc17b4e6314d5d4d03593d2ceee0fbb452b750bd70ea5af991a2600082600080886000015189602001518a604001518b606001518a8d6080015160000151604051602401611c6198979695949392919061259d565b60408051601f198184030181529181526020820180517bffffffffffffffffffffffffffffffffffffffffffffffffffffffff167fffffffff000000000000000000000000000000000000000000000000000000009094169390931790925260035491517f4000aea00000000000000000000000000000000000000000000000000000000081529092506001600160a01b0390911690634000aea090611d0f908a9089908690600401612619565b602060405180830381600087803b158015611d2957600080fd5b505af1158015611d3d573d6000803e3d6000fd5b505050506040513d601f19601f82011682018060405250810190611d6191906123b7565b611dd35760405162461bcd60e51b815260206004820152602360248201527f756e61626c6520746f207472616e73666572416e6443616c6c20746f206f726160448201527f636c65000000000000000000000000000000000000000000000000000000000060648201526084016103c4565b600160056000828254611de69190612676565b9091555091979650505050505050565b604080518082019091526060815260006020820152611e166020836128ac565b15611e3e57611e266020836128ac565b611e31906020612845565b611e3b9083612676565b91505b506020808301829052604080518085526000815283019091019052815b92915050565b60178111611e7c57610f068360e0600585901b168317611fc2565b60ff8111611ea657611e99836018611fe0600586901b1617611fc2565b50610f0683826001611fe7565b61ffff8111611ed157611ec4836019611fe0600586901b1617611fc2565b50610f0683826002611fe7565b63ffffffff8111611efe57611ef183601a611fe0600586901b1617611fc2565b50610f0683826004611fe7565b67ffffffffffffffff81116119c457611f2283601b611fe0600586901b1617611fc2565b50610f0683826008611fe7565b604080518082019091526060815260006020820152611f568384600001515184855161200d565b9392505050565b611f688260c3611fc2565b506117b482611f79836000196127d1565b604051602001611f8b91815260200190565b6040516020818303038152906040526120f7565b611faa8260c2611fc2565b506117b48282604051602001611f8b91815260200190565b604080518082019091526060815260006020820152611f568384600001515184612104565b604080518082019091526060815260006020820152610702848560000151518585612160565b604080518082019091526060815260006020820152825182111561203057600080fd5b602085015161203f8386612676565b111561207257612072856120628760200151878661205d9190612676565b6121e1565b61206d9060026127b2565b6121f8565b6000808651805187602083010193508088870111156120915787860182525b505050602084015b602084106120d157805182526120b0602083612676565b91506120bd602082612676565b90506120ca602085612845565b9350612099565b51815160001960208690036101000a019081169019919091161790525083949350505050565b611b208260028351611e61565b6040805180820190915260608152600060208201528360200151831061213957612139848560200151600261206d91906127b2565b835180516020858301018481535080851415612156576001810182525b5093949350505050565b60408051808201909152606081526000602082015260208501516121848584612676565b111561219857612198856120628685612676565b600060016121a88461010061270a565b6121b29190612845565b90508551838682010185831982511617815250805184870111156121d65783860181525b509495945050505050565b6000818311156121f2575081611e5b565b50919050565b81516122048383611df6565b50610f068382611f2f565b82805461221b9061285c565b90600052602060002090601f01602090048101928261223d5760008555612283565b82601f1061225657805160ff1916838001178555612283565b82800160010185558215612283579182015b82811115612283578251825591602001919060010190612268565b5061228f929150612293565b5090565b5b8082111561228f5760008155600101612294565b6000602082840312156122ba57600080fd5b8135611f568161292e565b6000602082840312156122d757600080fd5b8151611f568161292e565b600080600080608085870312156122f857600080fd5b84356123038161292e565b935060208501359250604085013567ffffffffffffffff8082111561232757600080fd5b818701915087601f83011261233b57600080fd5b81358181111561234d5761234d612918565b604051601f8201601f19908116603f0116810190838211818310171561237557612375612918565b816040528281528a602084870101111561238e57600080fd5b826020860160208301376000928101602001929092525095989497509495606001359450505050565b6000602082840312156123c957600080fd5b81518015158114611f5657600080fd5b600080604083850312156123ec57600080fd5b50508035926020909101359150565b60006020828403121561240d57600080fd5b5035919050565b60006020828403121561242657600080fd5b5051919050565b60008060006060848603121561244257600080fd5b8335925060208401359150604084013561245b8161292e565b809150509250925092565b6000806000806080858703121561247c57600080fd5b5050823594602084013594506040840135936060013592509050565b6000815180845260005b818110156124be576020818501810151868301820152016124a2565b818111156124d0576000602083870101525b50601f01601f19169290920160200192915050565b8054600090600181811c90808316806124ff57607f831692505b602080841082141561252157634e487b7160e01b600052602260045260246000fd5b818015612535576001811461254657612573565b60ff19861689528489019650612573565b60008881526020902060005b8681101561256b5781548b820152908501908301612552565b505084890196505b50505050505092915050565b600061199d61259761259184886124e5565b866124e5565b846124e5565b60006101006001600160a01b03808c1684528a60208501528960408501528089166060850152507fffffffff00000000000000000000000000000000000000000000000000000000871660808401528560a08401528460c08401528060e084015261260a81840185612498565b9b9a5050505050505050505050565b6001600160a01b038416815282602082015260606040820152600061199d6060830184612498565b602081526000611f566020830184612498565b6040815260006126676040830185612498565b90508260208301529392505050565b60008219821115612689576126896128d6565b500190565b600060ff821660ff84168060ff038211156126ab576126ab6128d6565b019392505050565b6000826126c2576126c26128ec565b500490565b600181815b808511156127025781600019048211156126e8576126e86128d6565b808516156126f557918102915b93841c93908002906126cc565b509250929050565b6000611f56838360008261272057506001611e5b565b8161272d57506000611e5b565b8160018114612743576002811461274d57612769565b6001915050611e5b565b60ff84111561275e5761275e6128d6565b50506001821b611e5b565b5060208310610133831016604e8410600b841016171561278c575081810a611e5b565b61279683836126c7565b80600019048211156127aa576127aa6128d6565b029392505050565b60008160001904831182151516156127cc576127cc6128d6565b500290565b6000808312837f80000000000000000000000000000000000000000000000000000000000000000183128115161561280b5761280b6128d6565b837f7fffffffffffffffffffffffffffffffffffffffffffffffffffffffffffffff01831381161561283f5761283f6128d6565b50500390565b600082821015612857576128576128d6565b500390565b600181811c9082168061287057607f821691505b602082108114156121f257634e487b7160e01b600052602260045260246000fd5b60006000198214156128a5576128a56128d6565b5060010190565b6000826128bb576128bb6128ec565b500690565b634e487b7160e01b600052600160045260246000fd5b634e487b7160e01b600052601160045260246000fd5b634e487b7160e01b600052601260045260246000fd5b634e487b7160e01b600052603260045260246000fd5b634e487b7160e01b600052604160045260246000fd5b6001600160a01b03811681146113e057600080fdfea264697066735822122073ee422ee34e22f8200bf36cb9fdae98126ccbfdbe24178105a61ccfc486f09f64736f6c634300080700334465706c6f79696e672061204d61726b6574706c6163652077697468206375726174696f6e206665653a",
  "devdoc": {
    "kind": "dev",
    "methods": {
      "owner()": {
        "details": "Returns the address of the current owner."
      },
      "renounceOwnership()": {
        "details": "Leaves the contract without owner. It will not be possible to call `onlyOwner` functions anymore. Can only be called by the current owner. NOTE: Renouncing ownership will leave the contract without an owner, thereby removing any functionality that is only available to the owner."
      },
      "transferOwnership(address)": {
        "details": "Transfers ownership of the contract to a new account (`newOwner`). Can only be called by the current owner."
      }
    },
    "title": "The Nifty Lair Marketplace",
    "version": 1
  },
  "userdoc": {
    "kind": "user",
    "methods": {
      "fulfill(bytes32,uint256)": {
        "notice": "Receive the response in the form of uint256"
      }
    },
    "notice": "Manage NFT Marketplace",
    "version": 1
  },
  "storageLayout": {
    "storage": [
      {
        "astId": 2272,
        "contract": "contracts/Marketplace.sol:Marketplace",
        "label": "_owner",
        "offset": 0,
        "slot": "0",
        "type": "t_address"
      },
      {
        "astId": 318,
        "contract": "contracts/Marketplace.sol:Marketplace",
        "label": "ens",
        "offset": 0,
        "slot": "1",
        "type": "t_contract(ENSInterface)1083"
      },
      {
        "astId": 320,
        "contract": "contracts/Marketplace.sol:Marketplace",
        "label": "ensNode",
        "offset": 0,
        "slot": "2",
        "type": "t_bytes32"
      },
      {
        "astId": 323,
        "contract": "contracts/Marketplace.sol:Marketplace",
        "label": "link",
        "offset": 0,
        "slot": "3",
        "type": "t_contract(LinkTokenInterface)1178"
      },
      {
        "astId": 326,
        "contract": "contracts/Marketplace.sol:Marketplace",
        "label": "oracle",
        "offset": 0,
        "slot": "4",
        "type": "t_contract(OperatorInterface)1260"
      },
      {
        "astId": 329,
        "contract": "contracts/Marketplace.sol:Marketplace",
        "label": "requestCount",
        "offset": 0,
        "slot": "5",
        "type": "t_uint256"
      },
      {
        "astId": 333,
        "contract": "contracts/Marketplace.sol:Marketplace",
        "label": "pendingRequests",
        "offset": 0,
        "slot": "6",
        "type": "t_mapping(t_bytes32,t_address)"
      },
      {
        "astId": 6339,
        "contract": "contracts/Marketplace.sol:Marketplace",
        "label": "itemIds",
        "offset": 0,
        "slot": "7",
        "type": "t_struct(Counter)5573_storage"
      },
      {
        "astId": 6342,
        "contract": "contracts/Marketplace.sol:Marketplace",
        "label": "itemSold",
        "offset": 0,
        "slot": "8",
        "type": "t_struct(Counter)5573_storage"
      },
      {
        "astId": 6344,
        "contract": "contracts/Marketplace.sol:Marketplace",
        "label": "curationFee",
        "offset": 0,
        "slot": "9",
        "type": "t_uint256"
      },
      {
        "astId": 6346,
        "contract": "contracts/Marketplace.sol:Marketplace",
        "label": "erc1155Address",
        "offset": 0,
        "slot": "10",
        "type": "t_address"
      },
      {
        "astId": 6348,
        "contract": "contracts/Marketplace.sol:Marketplace",
        "label": "amountStr",
        "offset": 0,
        "slot": "11",
        "type": "t_string_storage"
      },
      {
        "astId": 6350,
        "contract": "contracts/Marketplace.sol:Marketplace",
        "label": "oracle",
        "offset": 0,
        "slot": "12",
        "type": "t_address"
      },
      {
        "astId": 6352,
        "contract": "contracts/Marketplace.sol:Marketplace",
        "label": "jobId",
        "offset": 0,
        "slot": "13",
        "type": "t_bytes32"
      },
      {
        "astId": 6354,
        "contract": "contracts/Marketplace.sol:Marketplace",
        "label": "fee",
        "offset": 0,
        "slot": "14",
        "type": "t_uint256"
      },
      {
        "astId": 6356,
        "contract": "contracts/Marketplace.sol:Marketplace",
        "label": "str1",
        "offset": 0,
        "slot": "15",
        "type": "t_string_storage"
      },
      {
        "astId": 6358,
        "contract": "contracts/Marketplace.sol:Marketplace",
        "label": "str2",
        "offset": 0,
        "slot": "16",
        "type": "t_string_storage"
      },
      {
        "astId": 6360,
        "contract": "contracts/Marketplace.sol:Marketplace",
        "label": "account",
        "offset": 0,
        "slot": "17",
        "type": "t_address"
      },
      {
        "astId": 6362,
        "contract": "contracts/Marketplace.sol:Marketplace",
        "label": "marketItemIdGlobal",
        "offset": 0,
        "slot": "18",
        "type": "t_uint256"
      },
      {
        "astId": 6403,
        "contract": "contracts/Marketplace.sol:Marketplace",
        "label": "marketBasket",
        "offset": 0,
        "slot": "19",
        "type": "t_mapping(t_uint256,t_struct(listedNFT)6383_storage)"
      },
      {
        "astId": 6410,
        "contract": "contracts/Marketplace.sol:Marketplace",
        "label": "boundMap",
        "offset": 0,
        "slot": "20",
        "type": "t_mapping(t_uint256,t_mapping(t_address,t_struct(bondedNFT)6398_storage))"
      }
    ],
    "types": {
      "t_address": {
        "encoding": "inplace",
        "label": "address",
        "numberOfBytes": "20"
      },
      "t_address_payable": {
        "encoding": "inplace",
        "label": "address payable",
        "numberOfBytes": "20"
      },
      "t_bool": {
        "encoding": "inplace",
        "label": "bool",
        "numberOfBytes": "1"
      },
      "t_bytes32": {
        "encoding": "inplace",
        "label": "bytes32",
        "numberOfBytes": "32"
      },
      "t_contract(ENSInterface)1083": {
        "encoding": "inplace",
        "label": "contract ENSInterface",
        "numberOfBytes": "20"
      },
      "t_contract(LinkTokenInterface)1178": {
        "encoding": "inplace",
        "label": "contract LinkTokenInterface",
        "numberOfBytes": "20"
      },
      "t_contract(OperatorInterface)1260": {
        "encoding": "inplace",
        "label": "contract OperatorInterface",
        "numberOfBytes": "20"
      },
      "t_mapping(t_address,t_struct(bondedNFT)6398_storage)": {
        "encoding": "mapping",
        "key": "t_address",
        "label": "mapping(address => struct Marketplace.bondedNFT)",
        "numberOfBytes": "32",
        "value": "t_struct(bondedNFT)6398_storage"
      },
      "t_mapping(t_bytes32,t_address)": {
        "encoding": "mapping",
        "key": "t_bytes32",
        "label": "mapping(bytes32 => address)",
        "numberOfBytes": "32",
        "value": "t_address"
      },
      "t_mapping(t_uint256,t_mapping(t_address,t_struct(bondedNFT)6398_storage))": {
        "encoding": "mapping",
        "key": "t_uint256",
        "label": "mapping(uint256 => mapping(address => struct Marketplace.bondedNFT))",
        "numberOfBytes": "32",
        "value": "t_mapping(t_address,t_struct(bondedNFT)6398_storage)"
      },
      "t_mapping(t_uint256,t_struct(listedNFT)6383_storage)": {
        "encoding": "mapping",
        "key": "t_uint256",
        "label": "mapping(uint256 => struct Marketplace.listedNFT)",
        "numberOfBytes": "32",
        "value": "t_struct(listedNFT)6383_storage"
      },
      "t_string_storage": {
        "encoding": "bytes",
        "label": "string",
        "numberOfBytes": "32"
      },
      "t_struct(Counter)5573_storage": {
        "encoding": "inplace",
        "label": "struct Counters.Counter",
        "members": [
          {
            "astId": 5572,
            "contract": "contracts/Marketplace.sol:Marketplace",
            "label": "_value",
            "offset": 0,
            "slot": "0",
            "type": "t_uint256"
          }
        ],
        "numberOfBytes": "32"
      },
      "t_struct(bondedNFT)6398_storage": {
        "encoding": "inplace",
        "label": "struct Marketplace.bondedNFT",
        "members": [
          {
            "astId": 6385,
            "contract": "contracts/Marketplace.sol:Marketplace",
            "label": "tokenId",
            "offset": 0,
            "slot": "0",
            "type": "t_uint256"
          },
          {
            "astId": 6387,
            "contract": "contracts/Marketplace.sol:Marketplace",
            "label": "amount",
            "offset": 0,
            "slot": "1",
            "type": "t_uint256"
          },
          {
            "astId": 6389,
            "contract": "contracts/Marketplace.sol:Marketplace",
            "label": "user",
            "offset": 0,
            "slot": "2",
            "type": "t_address"
          },
          {
            "astId": 6391,
            "contract": "contracts/Marketplace.sol:Marketplace",
            "label": "isBond",
            "offset": 20,
            "slot": "2",
            "type": "t_bool"
          },
          {
            "astId": 6393,
            "contract": "contracts/Marketplace.sol:Marketplace",
            "label": "timeStamp",
            "offset": 0,
            "slot": "3",
            "type": "t_uint256"
          },
          {
            "astId": 6395,
            "contract": "contracts/Marketplace.sol:Marketplace",
            "label": "erc20Address",
            "offset": 0,
            "slot": "4",
            "type": "t_address"
          },
          {
            "astId": 6397,
            "contract": "contracts/Marketplace.sol:Marketplace",
            "label": "votingPower",
            "offset": 0,
            "slot": "5",
            "type": "t_uint256"
          }
        ],
        "numberOfBytes": "192"
      },
      "t_struct(listedNFT)6383_storage": {
        "encoding": "inplace",
        "label": "struct Marketplace.listedNFT",
        "members": [
          {
            "astId": 6364,
            "contract": "contracts/Marketplace.sol:Marketplace",
            "label": "id",
            "offset": 0,
            "slot": "0",
            "type": "t_uint256"
          },
          {
            "astId": 6366,
            "contract": "contracts/Marketplace.sol:Marketplace",
            "label": "contractAddress",
            "offset": 0,
            "slot": "1",
            "type": "t_address"
          },
          {
            "astId": 6368,
            "contract": "contracts/Marketplace.sol:Marketplace",
            "label": "tokenId",
            "offset": 0,
            "slot": "2",
            "type": "t_uint256"
          },
          {
            "astId": 6370,
            "contract": "contracts/Marketplace.sol:Marketplace",
            "label": "metadataUri",
            "offset": 0,
            "slot": "3",
            "type": "t_string_storage"
          },
          {
            "astId": 6372,
            "contract": "contracts/Marketplace.sol:Marketplace",
            "label": "seller",
            "offset": 0,
            "slot": "4",
            "type": "t_address_payable"
          },
          {
            "astId": 6374,
            "contract": "contracts/Marketplace.sol:Marketplace",
            "label": "owner",
            "offset": 0,
            "slot": "5",
            "type": "t_address_payable"
          },
          {
            "astId": 6376,
            "contract": "contracts/Marketplace.sol:Marketplace",
            "label": "price",
            "offset": 0,
            "slot": "6",
            "type": "t_uint256"
          },
          {
            "astId": 6378,
            "contract": "contracts/Marketplace.sol:Marketplace",
            "label": "timestampNFT",
            "offset": 0,
            "slot": "7",
            "type": "t_uint256"
          },
          {
            "astId": 6380,
            "contract": "contracts/Marketplace.sol:Marketplace",
            "label": "totalVotingPower",
            "offset": 0,
            "slot": "8",
            "type": "t_uint256"
          },
          {
            "astId": 6382,
            "contract": "contracts/Marketplace.sol:Marketplace",
            "label": "tokenValue",
            "offset": 0,
            "slot": "9",
            "type": "t_uint256"
          }
        ],
        "numberOfBytes": "320"
      },
      "t_uint256": {
        "encoding": "inplace",
        "label": "uint256",
        "numberOfBytes": "32"
      }
    }
  }
}