{
  "address": "0x4D8dF53C7659aD367a66854dDe1facDfba551712",
  "abi": [
    {
      "inputs": [
        {
          "internalType": "uint256",
          "name": "_curationFee",
          "type": "uint256"
        }
      ],
      "stateMutability": "nonpayable",
      "type": "constructor"
    },
    {
      "anonymous": false,
      "inputs": [
        {
          "indexed": true,
          "internalType": "uint256",
          "name": "_marketItemId",
          "type": "uint256"
        },
        {
          "indexed": true,
          "internalType": "uint256",
          "name": "_tokenId",
          "type": "uint256"
        },
        {
          "indexed": false,
          "internalType": "uint256",
          "name": "_amount",
          "type": "uint256"
        },
        {
          "indexed": false,
          "internalType": "uint256",
          "name": "_timestamp",
          "type": "uint256"
        },
        {
          "indexed": false,
          "internalType": "address",
          "name": "_erc20Address",
          "type": "address"
        },
        {
          "indexed": false,
          "internalType": "bool",
          "name": "_isBond",
          "type": "bool"
        },
        {
          "indexed": false,
          "internalType": "address",
          "name": "_user",
          "type": "address"
        }
      ],
      "name": "NFTBond",
      "type": "event"
    },
    {
      "anonymous": false,
      "inputs": [
        {
          "indexed": true,
          "internalType": "uint256",
          "name": "_marketItemId",
          "type": "uint256"
        },
        {
          "indexed": true,
          "internalType": "address",
          "name": "_contractAddress",
          "type": "address"
        },
        {
          "indexed": true,
          "internalType": "uint256",
          "name": "_tokenId",
          "type": "uint256"
        },
        {
          "indexed": false,
          "internalType": "address",
          "name": "_seller",
          "type": "address"
        },
        {
          "indexed": false,
          "internalType": "address",
          "name": "_newOwner",
          "type": "address"
        },
        {
          "indexed": false,
          "internalType": "uint256",
          "name": "_price",
          "type": "uint256"
        }
      ],
      "name": "NFTBought",
      "type": "event"
    },
    {
      "anonymous": false,
      "inputs": [
        {
          "indexed": false,
          "internalType": "bool",
          "name": "success",
          "type": "bool"
        },
        {
          "indexed": true,
          "internalType": "uint256",
          "name": "_marketItemId",
          "type": "uint256"
        },
        {
          "indexed": true,
          "internalType": "address",
          "name": "_contractAddress",
          "type": "address"
        },
        {
          "indexed": true,
          "internalType": "uint256",
          "name": "_tokenId",
          "type": "uint256"
        },
        {
          "indexed": false,
          "internalType": "address",
          "name": "_seller",
          "type": "address"
        },
        {
          "indexed": false,
          "internalType": "address",
          "name": "_newOwner",
          "type": "address"
        },
        {
          "indexed": false,
          "internalType": "uint256",
          "name": "_price",
          "type": "uint256"
        }
      ],
      "name": "NFTListed",
      "type": "event"
    },
    {
      "anonymous": false,
      "inputs": [
        {
          "indexed": true,
          "internalType": "uint256",
          "name": "_marketItemId",
          "type": "uint256"
        },
        {
          "indexed": true,
          "internalType": "uint256",
          "name": "_tokenId",
          "type": "uint256"
        },
        {
          "indexed": false,
          "internalType": "uint256",
          "name": "_amount",
          "type": "uint256"
        },
        {
          "indexed": false,
          "internalType": "uint256",
          "name": "_timestamp",
          "type": "uint256"
        },
        {
          "indexed": false,
          "internalType": "address",
          "name": "_erc20Address",
          "type": "address"
        },
        {
          "indexed": false,
          "internalType": "bool",
          "name": "_isBond",
          "type": "bool"
        },
        {
          "indexed": false,
          "internalType": "address",
          "name": "_user",
          "type": "address"
        }
      ],
      "name": "NFTUnbond",
      "type": "event"
    },
    {
      "inputs": [
        {
          "internalType": "uint256",
          "name": "marketItemId",
          "type": "uint256"
        },
        {
          "internalType": "uint256",
          "name": "amount",
          "type": "uint256"
        },
        {
          "internalType": "address",
          "name": "erc20Address",
          "type": "address"
        }
      ],
      "name": "bondNFT",
      "outputs": [],
      "stateMutability": "nonpayable",
      "type": "function"
    },
    {
      "inputs": [
        {
          "internalType": "uint256",
          "name": "marketItemId",
          "type": "uint256"
        }
      ],
      "name": "buyNFT",
      "outputs": [],
      "stateMutability": "payable",
      "type": "function"
    },
    {
      "inputs": [],
      "name": "getCurationFee",
      "outputs": [
        {
          "internalType": "uint256",
          "name": "",
          "type": "uint256"
        }
      ],
      "stateMutability": "view",
      "type": "function"
    },
    {
      "inputs": [
        {
          "internalType": "address",
          "name": "_contractAddress",
          "type": "address"
        },
        {
          "internalType": "uint256",
          "name": "_tokenId",
          "type": "uint256"
        },
        {
          "internalType": "string",
          "name": "_metadataUri",
          "type": "string"
        },
        {
          "internalType": "uint256",
          "name": "_price",
          "type": "uint256"
        }
      ],
      "name": "listNFT",
      "outputs": [],
      "stateMutability": "nonpayable",
      "type": "function"
    },
    {
      "inputs": [
        {
          "internalType": "uint256",
          "name": "marketItemId",
          "type": "uint256"
        }
      ],
      "name": "unbondNFT",
      "outputs": [],
      "stateMutability": "nonpayable",
      "type": "function"
    }
  ],
  "transactionHash": "0x91a8a9bff716b59e265d82776c7e42a70112ad013c0ea30c33c8c9b1060bc16d",
  "args": [
    "10000000000000000"
  ],
  "solcInputHash": "3aaa4510862d4f561b5ae7c10ad4e40d",
  "bytecode": "0x608060405234801561001057600080fd5b50604051610f02380380610f0283398101604081905261002f916100d1565b61005b6040518060600160405280602a8152602001610ed8602a91398261006360201b6109c41760201c565b600255610147565b6100ac82826040516024016100799291906100ea565b60408051601f198184030181529190526020810180516001600160e01b039081166309710a9d60e41b179091526100b016565b5050565b80516a636f6e736f6c652e6c6f67602083016000808483855afa5050505050565b6000602082840312156100e357600080fd5b5051919050565b604081526000835180604084015260005b8181101561011857602081870181015160608684010152016100fb565b8181111561012a576000606083860101525b50602083019390935250601f91909101601f191601606001919050565b610d82806101566000396000f3fe60806040526004361061005a5760003560e01c8063682575e411610043578063682575e414610096578063b7ef89ba146100b6578063f4218d9a146100d657600080fd5b806351ed82881461005f5780636228f7c314610074575b600080fd5b61007261006d366004610c0d565b6100f6565b005b34801561008057600080fd5b5060025460405190815260200160405180910390f35b3480156100a257600080fd5b506100726100b1366004610b11565b6102aa565b3480156100c257600080fd5b506100726100d1366004610c3f565b6104b4565b3480156100e257600080fd5b506100726100f1366004610c0d565b610800565b6000818152600360205260409020600681015460028201546004830154600190930154919290916001600160a01b03918216911634841461017e5760405162461bcd60e51b815260206004820152601a60248201527f56616c7565206d757374206d617463682074686520707269636500000000000060448201526064015b60405180910390fd5b60008581526003602052604090819020600501805473ffffffffffffffffffffffffffffffffffffffff19163390811790915590516323b872dd60e01b81526001600160a01b038481166004830152602482019290925260448101859052908216906323b872dd90606401600060405180830381600087803b15801561020357600080fd5b505af1158015610217573d6000803e3d6000fd5b50506040516001600160a01b038516925086156108fc02915086906000818181858888f19350505050158015610251573d6000803e3d6000fd5b50604080516001600160a01b038481168252336020830152918101869052849183169087907fd149f58da1dff89c18946d3ebf3588c7e52cb96cdbb10ca1baf80c14178f524b9060600160405180910390a45050505050565b600081116102fa5760405162461bcd60e51b815260206004820152601b60248201527f5072696365206d75737420626520686967686572207468616e203000000000006044820152606401610175565b610308600080546001019055565b6000805460008181526003602081815260409092208381556001810180546001600160a01b038b1673ffffffffffffffffffffffffffffffffffffffff199182161790915560028201899055600482018054821633179055600582018054909116905560068101869055865193945061038693910191860190610a5c565b506040513060248201526044810185905260009081906001600160a01b0388169060640160408051601f198184030181529181526020820180517bffffffffffffffffffffffffffffffffffffffffffffffffffffffff167f8b069f2a000000000000000000000000000000000000000000000000000000001790525161040d9190610c74565b600060405180830381855af49150503d8060008114610448576040519150601f19603f3d011682016040523d82523d6000602084013e61044d565b606091505b5060408051831515815233602082015260008183015260608101889052905192945090925087916001600160a01b038a169186917fa567c1d35f3704a0294fe96e37076c1fe29a2735ae6bd9e2189bbc1778b9369d9181900360800190a450505050505050565b600082116105045760405162461bcd60e51b815260206004820152601c60248201527f416d6f756e74206d75737420626520686967686572207468616e2030000000006044820152606401610175565b6040517f70a0823100000000000000000000000000000000000000000000000000000000815233600482015282906001600160a01b038316906370a082319060240160206040518083038186803b15801561055e57600080fd5b505afa158015610572573d6000803e3d6000fd5b505050506040513d601f19601f820116820180604052508101906105969190610c26565b101561060a5760405162461bcd60e51b815260206004820152602c60248201527f42616c616e6365206d757374206265206174206c6561737420657175616c207460448201527f6f2074686520616d6f756e7400000000000000000000000000000000000000006064820152608401610175565b6000838152600460209081526040808320338452909152902060020154600160a01b900460ff161561067e5760405162461bcd60e51b815260206004820152601660248201527f5573657220697320616c726561647920626f6e646564000000000000000000006044820152606401610175565b6040516323b872dd60e01b8152336004820152306024820152604481018390526001600160a01b038216906323b872dd90606401602060405180830381600087803b1580156106cc57600080fd5b505af11580156106e0573d6000803e3d6000fd5b505050506040513d601f19601f820116820180604052508101906107049190610be4565b5060008381526004602081815260408084203380865290835281852060018082018990556002808301805460ff60a01b1986167fffffffffffffffffffffff00000000000000000000000000000000000000000090911617600160a01b1790558a8852600380875297859020018054835595820180546001600160a01b038a1673ffffffffffffffffffffffffffffffffffffffff199091168117909155429790920187905594548351898152948501969096528383015260608301939093526080820192909252905185917f18ee6287d3eaab175be3159bfb465d3a09c7b6dcdb93de9bf740c85d4da71230919081900360a00190a3505050565b6000818152600460209081526040808320338452909152902060020154600160a01b900460ff1615156001146108785760405162461bcd60e51b815260206004820152601060248201527f55736572206973206e6f7420626f6e64000000000000000000000000000000006044820152606401610175565b60008181526004602081815260408084203380865292529283902060018101549083015493516323b872dd60e01b81523093810193909352602483019190915260448201819052916001600160a01b0316906323b872dd90606401602060405180830381600087803b1580156108ed57600080fd5b505af1158015610901573d6000803e3d6000fd5b505050506040513d601f19601f820116820180604052508101906109259190610be4565b506000828152600460208181526040808420338086528184528286206002808201805460ff60a01b1916905589885260038652848820015482885292855290940154825187815242948101949094526001600160a01b03168383015260608301949094526080820192909252905184917fa1002c2ee5f7b22f1c4b3355457623ae93a326bef0a2478d1499df6c78bea6ed919081900360a00190a35050565b610a3782826040516024016109da929190610c90565b60408051601f198184030181529190526020810180517bffffffffffffffffffffffffffffffffffffffffffffffffffffffff167f9710a9d000000000000000000000000000000000000000000000000000000000179052610a3b565b5050565b80516a636f6e736f6c652e6c6f67602083016000808483855afa5050505050565b828054610a6890610cfb565b90600052602060002090601f016020900481019282610a8a5760008555610ad0565b82601f10610aa357805160ff1916838001178555610ad0565b82800160010185558215610ad0579182015b82811115610ad0578251825591602001919060010190610ab5565b50610adc929150610ae0565b5090565b5b80821115610adc5760008155600101610ae1565b80356001600160a01b0381168114610b0c57600080fd5b919050565b60008060008060808587031215610b2757600080fd5b610b3085610af5565b935060208501359250604085013567ffffffffffffffff80821115610b5457600080fd5b818701915087601f830112610b6857600080fd5b813581811115610b7a57610b7a610d36565b604051601f8201601f19908116603f01168101908382118183101715610ba257610ba2610d36565b816040528281528a6020848701011115610bbb57600080fd5b826020860160208301376000928101602001929092525095989497509495606001359450505050565b600060208284031215610bf657600080fd5b81518015158114610c0657600080fd5b9392505050565b600060208284031215610c1f57600080fd5b5035919050565b600060208284031215610c3857600080fd5b5051919050565b600080600060608486031215610c5457600080fd5b8335925060208401359150610c6b60408501610af5565b90509250925092565b60008251610c86818460208701610ccb565b9190910192915050565b6040815260008351806040840152610caf816060850160208801610ccb565b602083019390935250601f91909101601f191601606001919050565b60005b83811015610ce6578181015183820152602001610cce565b83811115610cf5576000848401525b50505050565b600181811c90821680610d0f57607f821691505b60208210811415610d3057634e487b7160e01b600052602260045260246000fd5b50919050565b634e487b7160e01b600052604160045260246000fdfea2646970667358221220de8b89d1667b285eb0f8a2f3d6d0d0de2338620dd3d225951a058a27908f2e7d64736f6c634300080700334465706c6f79696e672061204d61726b6574706c6163652077697468206375726174696f6e206665653a",
  "devdoc": {
    "kind": "dev",
    "methods": {},
    "title": "The Nifty Lair Marketplace",
    "version": 1
  },
  "userdoc": {
    "kind": "user",
    "methods": {},
    "notice": "Manage NFT Marketplace",
    "version": 1
  },
  "storageLayout": {
    "storage": [
      {
        "astId": 2525,
        "contract": "contracts/Marketplace.sol:Marketplace",
        "label": "itemIds",
        "offset": 0,
        "slot": "0",
        "type": "t_struct(Counter)1773_storage"
      },
      {
        "astId": 2528,
        "contract": "contracts/Marketplace.sol:Marketplace",
        "label": "itemSold",
        "offset": 0,
        "slot": "1",
        "type": "t_struct(Counter)1773_storage"
      },
      {
        "astId": 2530,
        "contract": "contracts/Marketplace.sol:Marketplace",
        "label": "curationFee",
        "offset": 0,
        "slot": "2",
        "type": "t_uint256"
      },
      {
        "astId": 2563,
        "contract": "contracts/Marketplace.sol:Marketplace",
        "label": "marketBasket",
        "offset": 0,
        "slot": "3",
        "type": "t_mapping(t_uint256,t_struct(listedNFT)2545_storage)"
      },
      {
        "astId": 2570,
        "contract": "contracts/Marketplace.sol:Marketplace",
        "label": "boundMap",
        "offset": 0,
        "slot": "4",
        "type": "t_mapping(t_uint256,t_mapping(t_address,t_struct(bondedNFT)2558_storage))"
      }
    ],
    "types": {
      "t_address": {
        "encoding": "inplace",
        "label": "address",
        "numberOfBytes": "20"
      },
      "t_address_payable": {
        "encoding": "inplace",
        "label": "address payable",
        "numberOfBytes": "20"
      },
      "t_bool": {
        "encoding": "inplace",
        "label": "bool",
        "numberOfBytes": "1"
      },
      "t_mapping(t_address,t_struct(bondedNFT)2558_storage)": {
        "encoding": "mapping",
        "key": "t_address",
        "label": "mapping(address => struct Marketplace.bondedNFT)",
        "numberOfBytes": "32",
        "value": "t_struct(bondedNFT)2558_storage"
      },
      "t_mapping(t_uint256,t_mapping(t_address,t_struct(bondedNFT)2558_storage))": {
        "encoding": "mapping",
        "key": "t_uint256",
        "label": "mapping(uint256 => mapping(address => struct Marketplace.bondedNFT))",
        "numberOfBytes": "32",
        "value": "t_mapping(t_address,t_struct(bondedNFT)2558_storage)"
      },
      "t_mapping(t_uint256,t_struct(listedNFT)2545_storage)": {
        "encoding": "mapping",
        "key": "t_uint256",
        "label": "mapping(uint256 => struct Marketplace.listedNFT)",
        "numberOfBytes": "32",
        "value": "t_struct(listedNFT)2545_storage"
      },
      "t_string_storage": {
        "encoding": "bytes",
        "label": "string",
        "numberOfBytes": "32"
      },
      "t_struct(Counter)1773_storage": {
        "encoding": "inplace",
        "label": "struct Counters.Counter",
        "members": [
          {
            "astId": 1772,
            "contract": "contracts/Marketplace.sol:Marketplace",
            "label": "_value",
            "offset": 0,
            "slot": "0",
            "type": "t_uint256"
          }
        ],
        "numberOfBytes": "32"
      },
      "t_struct(bondedNFT)2558_storage": {
        "encoding": "inplace",
        "label": "struct Marketplace.bondedNFT",
        "members": [
          {
            "astId": 2547,
            "contract": "contracts/Marketplace.sol:Marketplace",
            "label": "tokenId",
            "offset": 0,
            "slot": "0",
            "type": "t_uint256"
          },
          {
            "astId": 2549,
            "contract": "contracts/Marketplace.sol:Marketplace",
            "label": "amount",
            "offset": 0,
            "slot": "1",
            "type": "t_uint256"
          },
          {
            "astId": 2551,
            "contract": "contracts/Marketplace.sol:Marketplace",
            "label": "user",
            "offset": 0,
            "slot": "2",
            "type": "t_address"
          },
          {
            "astId": 2553,
            "contract": "contracts/Marketplace.sol:Marketplace",
            "label": "isBond",
            "offset": 20,
            "slot": "2",
            "type": "t_bool"
          },
          {
            "astId": 2555,
            "contract": "contracts/Marketplace.sol:Marketplace",
            "label": "timeStamp",
            "offset": 0,
            "slot": "3",
            "type": "t_uint256"
          },
          {
            "astId": 2557,
            "contract": "contracts/Marketplace.sol:Marketplace",
            "label": "erc20Address",
            "offset": 0,
            "slot": "4",
            "type": "t_address"
          }
        ],
        "numberOfBytes": "160"
      },
      "t_struct(listedNFT)2545_storage": {
        "encoding": "inplace",
        "label": "struct Marketplace.listedNFT",
        "members": [
          {
            "astId": 2532,
            "contract": "contracts/Marketplace.sol:Marketplace",
            "label": "id",
            "offset": 0,
            "slot": "0",
            "type": "t_uint256"
          },
          {
            "astId": 2534,
            "contract": "contracts/Marketplace.sol:Marketplace",
            "label": "contractAddress",
            "offset": 0,
            "slot": "1",
            "type": "t_address"
          },
          {
            "astId": 2536,
            "contract": "contracts/Marketplace.sol:Marketplace",
            "label": "tokenId",
            "offset": 0,
            "slot": "2",
            "type": "t_uint256"
          },
          {
            "astId": 2538,
            "contract": "contracts/Marketplace.sol:Marketplace",
            "label": "metadataUri",
            "offset": 0,
            "slot": "3",
            "type": "t_string_storage"
          },
          {
            "astId": 2540,
            "contract": "contracts/Marketplace.sol:Marketplace",
            "label": "seller",
            "offset": 0,
            "slot": "4",
            "type": "t_address_payable"
          },
          {
            "astId": 2542,
            "contract": "contracts/Marketplace.sol:Marketplace",
            "label": "owner",
            "offset": 0,
            "slot": "5",
            "type": "t_address_payable"
          },
          {
            "astId": 2544,
            "contract": "contracts/Marketplace.sol:Marketplace",
            "label": "price",
            "offset": 0,
            "slot": "6",
            "type": "t_uint256"
          }
        ],
        "numberOfBytes": "224"
      },
      "t_uint256": {
        "encoding": "inplace",
        "label": "uint256",
        "numberOfBytes": "32"
      }
    }
  }
}