{
  "address": "0xb548525872CD4BcD3E673d4A21D0093b0fD5fD63",
  "abi": [
    {
      "inputs": [],
      "stateMutability": "nonpayable",
      "type": "constructor"
    },
    {
      "anonymous": false,
      "inputs": [
        {
          "indexed": true,
          "internalType": "address",
          "name": "owner",
          "type": "address"
        },
        {
          "indexed": true,
          "internalType": "address",
          "name": "approved",
          "type": "address"
        },
        {
          "indexed": true,
          "internalType": "uint256",
          "name": "tokenId",
          "type": "uint256"
        }
      ],
      "name": "Approval",
      "type": "event"
    },
    {
      "anonymous": false,
      "inputs": [
        {
          "indexed": true,
          "internalType": "address",
          "name": "owner",
          "type": "address"
        },
        {
          "indexed": true,
          "internalType": "address",
          "name": "operator",
          "type": "address"
        },
        {
          "indexed": false,
          "internalType": "bool",
          "name": "approved",
          "type": "bool"
        }
      ],
      "name": "ApprovalForAll",
      "type": "event"
    },
    {
      "anonymous": false,
      "inputs": [
        {
          "indexed": true,
          "internalType": "uint256",
          "name": "tokenId",
          "type": "uint256"
        },
        {
          "indexed": false,
          "internalType": "string",
          "name": "tokenUri",
          "type": "string"
        }
      ],
      "name": "CreatedSVGNFT",
      "type": "event"
    },
    {
      "anonymous": false,
      "inputs": [
        {
          "indexed": true,
          "internalType": "address",
          "name": "from",
          "type": "address"
        },
        {
          "indexed": true,
          "internalType": "address",
          "name": "to",
          "type": "address"
        },
        {
          "indexed": true,
          "internalType": "uint256",
          "name": "tokenId",
          "type": "uint256"
        }
      ],
      "name": "Transfer",
      "type": "event"
    },
    {
      "inputs": [
        {
          "internalType": "address",
          "name": "to",
          "type": "address"
        },
        {
          "internalType": "uint256",
          "name": "tokenId",
          "type": "uint256"
        }
      ],
      "name": "approve",
      "outputs": [],
      "stateMutability": "nonpayable",
      "type": "function"
    },
    {
      "inputs": [
        {
          "internalType": "address",
          "name": "owner",
          "type": "address"
        }
      ],
      "name": "balanceOf",
      "outputs": [
        {
          "internalType": "uint256",
          "name": "",
          "type": "uint256"
        }
      ],
      "stateMutability": "view",
      "type": "function"
    },
    {
      "inputs": [
        {
          "internalType": "string",
          "name": "_svg",
          "type": "string"
        }
      ],
      "name": "create",
      "outputs": [],
      "stateMutability": "nonpayable",
      "type": "function"
    },
    {
      "inputs": [
        {
          "internalType": "string",
          "name": "_imageUri",
          "type": "string"
        }
      ],
      "name": "formatTokenURI",
      "outputs": [
        {
          "internalType": "string",
          "name": "",
          "type": "string"
        }
      ],
      "stateMutability": "pure",
      "type": "function"
    },
    {
      "inputs": [
        {
          "internalType": "uint256",
          "name": "tokenId",
          "type": "uint256"
        }
      ],
      "name": "getApproved",
      "outputs": [
        {
          "internalType": "address",
          "name": "",
          "type": "address"
        }
      ],
      "stateMutability": "view",
      "type": "function"
    },
    {
      "inputs": [
        {
          "internalType": "address",
          "name": "owner",
          "type": "address"
        },
        {
          "internalType": "address",
          "name": "operator",
          "type": "address"
        }
      ],
      "name": "isApprovedForAll",
      "outputs": [
        {
          "internalType": "bool",
          "name": "",
          "type": "bool"
        }
      ],
      "stateMutability": "view",
      "type": "function"
    },
    {
      "inputs": [],
      "name": "name",
      "outputs": [
        {
          "internalType": "string",
          "name": "",
          "type": "string"
        }
      ],
      "stateMutability": "view",
      "type": "function"
    },
    {
      "inputs": [
        {
          "internalType": "uint256",
          "name": "tokenId",
          "type": "uint256"
        }
      ],
      "name": "ownerOf",
      "outputs": [
        {
          "internalType": "address",
          "name": "",
          "type": "address"
        }
      ],
      "stateMutability": "view",
      "type": "function"
    },
    {
      "inputs": [
        {
          "internalType": "address",
          "name": "from",
          "type": "address"
        },
        {
          "internalType": "address",
          "name": "to",
          "type": "address"
        },
        {
          "internalType": "uint256",
          "name": "tokenId",
          "type": "uint256"
        }
      ],
      "name": "safeTransferFrom",
      "outputs": [],
      "stateMutability": "nonpayable",
      "type": "function"
    },
    {
      "inputs": [
        {
          "internalType": "address",
          "name": "from",
          "type": "address"
        },
        {
          "internalType": "address",
          "name": "to",
          "type": "address"
        },
        {
          "internalType": "uint256",
          "name": "tokenId",
          "type": "uint256"
        },
        {
          "internalType": "bytes",
          "name": "_data",
          "type": "bytes"
        }
      ],
      "name": "safeTransferFrom",
      "outputs": [],
      "stateMutability": "nonpayable",
      "type": "function"
    },
    {
      "inputs": [
        {
          "internalType": "address",
          "name": "operator",
          "type": "address"
        },
        {
          "internalType": "bool",
          "name": "approved",
          "type": "bool"
        }
      ],
      "name": "setApprovalForAll",
      "outputs": [],
      "stateMutability": "nonpayable",
      "type": "function"
    },
    {
      "inputs": [
        {
          "internalType": "bytes4",
          "name": "interfaceId",
          "type": "bytes4"
        }
      ],
      "name": "supportsInterface",
      "outputs": [
        {
          "internalType": "bool",
          "name": "",
          "type": "bool"
        }
      ],
      "stateMutability": "view",
      "type": "function"
    },
    {
      "inputs": [
        {
          "internalType": "string",
          "name": "_svg",
          "type": "string"
        }
      ],
      "name": "svgToImageURI",
      "outputs": [
        {
          "internalType": "string",
          "name": "",
          "type": "string"
        }
      ],
      "stateMutability": "pure",
      "type": "function"
    },
    {
      "inputs": [],
      "name": "symbol",
      "outputs": [
        {
          "internalType": "string",
          "name": "",
          "type": "string"
        }
      ],
      "stateMutability": "view",
      "type": "function"
    },
    {
      "inputs": [
        {
          "internalType": "uint256",
          "name": "tokenId",
          "type": "uint256"
        }
      ],
      "name": "tokenURI",
      "outputs": [
        {
          "internalType": "string",
          "name": "",
          "type": "string"
        }
      ],
      "stateMutability": "view",
      "type": "function"
    },
    {
      "inputs": [
        {
          "internalType": "address",
          "name": "from",
          "type": "address"
        },
        {
          "internalType": "address",
          "name": "to",
          "type": "address"
        },
        {
          "internalType": "uint256",
          "name": "tokenId",
          "type": "uint256"
        }
      ],
      "name": "transferFrom",
      "outputs": [],
      "stateMutability": "nonpayable",
      "type": "function"
    }
  ],
  "transactionHash": "0xf9a2fa28be2daffdda4f189f5cf9dfa0d01227a288509d42b0eafdb7145883a4",
  "args": [],
  "solcInputHash": "383aa35a6cafba241d63720c5c67a93a",
  "bytecode": "0x60806040523480156200001157600080fd5b50604080518082018252600781526614d591c813919560ca1b6020808301918252835180850190945260068452651cdd99d3919560d21b9084015281519192916200005f9160009162000083565b5080516200007590600190602084019062000083565b505060006007555062000166565b828054620000919062000129565b90600052602060002090601f016020900481019282620000b5576000855562000100565b82601f10620000d057805160ff191683800117855562000100565b8280016001018555821562000100579182015b8281111562000100578251825591602001919060010190620000e3565b506200010e92915062000112565b5090565b5b808211156200010e576000815560010162000113565b600181811c908216806200013e57607f821691505b602082108114156200016057634e487b7160e01b600052602260045260246000fd5b50919050565b611e0c80620001766000396000f3fe608060405234801561001057600080fd5b50600436106101005760003560e01c806370a0823111610097578063b6a46b3b11610066578063b6a46b3b1461021d578063b88d4fde14610230578063c87b56dd14610243578063e985e9c51461025657600080fd5b806370a08231146101ce57806371aee193146101ef57806395d89b4114610202578063a22cb4651461020a57600080fd5b806323b872dd116100d357806323b872dd1461018257806330d871c61461019557806342842e0e146101a85780636352211e146101bb57600080fd5b806301ffc9a71461010557806306fdde031461012d578063081812fc14610142578063095ea7b31461016d575b600080fd5b6101186101133660046119c7565b610292565b60405190151581526020015b60405180910390f35b61013561032f565b6040516101249190611c1a565b610155610150366004611a4a565b6103c1565b6040516001600160a01b039091168152602001610124565b61018061017b36600461199d565b61045b565b005b6101806101903660046118a9565b61058d565b6101356101a3366004611a01565b610614565b6101806101b63660046118a9565b6106aa565b6101556101c9366004611a4a565b6106c5565b6101e16101dc36600461185b565b610750565b604051908152602001610124565b6101356101fd366004611a01565b6107ea565b610135610863565b610180610218366004611961565b610872565b61018061022b366004611a01565b610937565b61018061023e3660046118e5565b6109b9565b610135610251366004611a4a565b610a47565b610118610264366004611876565b6001600160a01b03918216600090815260056020908152604080832093909416825291909152205460ff1690565b60006001600160e01b031982167f80ac58cd0000000000000000000000000000000000000000000000000000000014806102f557506001600160e01b031982167f5b5e139f00000000000000000000000000000000000000000000000000000000145b8061032957507f01ffc9a7000000000000000000000000000000000000000000000000000000006001600160e01b03198316145b92915050565b60606000805461033e90611cbb565b80601f016020809104026020016040519081016040528092919081815260200182805461036a90611cbb565b80156103b75780601f1061038c576101008083540402835291602001916103b7565b820191906000526020600020905b81548152906001019060200180831161039a57829003601f168201915b5050505050905090565b6000818152600260205260408120546001600160a01b031661043f5760405162461bcd60e51b815260206004820152602c60248201527f4552433732313a20617070726f76656420717565727920666f72206e6f6e657860448201526b34b9ba32b73a103a37b5b2b760a11b60648201526084015b60405180910390fd5b506000908152600460205260409020546001600160a01b031690565b6000610466826106c5565b9050806001600160a01b0316836001600160a01b031614156104f05760405162461bcd60e51b815260206004820152602160248201527f4552433732313a20617070726f76616c20746f2063757272656e74206f776e6560448201527f72000000000000000000000000000000000000000000000000000000000000006064820152608401610436565b336001600160a01b038216148061050c575061050c8133610264565b61057e5760405162461bcd60e51b815260206004820152603860248201527f4552433732313a20617070726f76652063616c6c6572206973206e6f74206f7760448201527f6e6572206e6f7220617070726f76656420666f7220616c6c00000000000000006064820152608401610436565b6105888383610bda565b505050565b6105973382610c55565b6106095760405162461bcd60e51b815260206004820152603160248201527f4552433732313a207472616e736665722063616c6c6572206973206e6f74206f60448201527f776e6572206e6f7220617070726f7665640000000000000000000000000000006064820152608401610436565b610588838383610d48565b606060006040518060400160405280601a81526020017f646174613a696d6167652f7376672b786d6c3b6261736536342c0000000000008152509050600061067a846040516020016106669190611a8f565b604051602081830303815290604052610f22565b905060008282604051602001610691929190611aab565b60408051601f1981840301815291905295945050505050565b610588838383604051806020016040528060008152506109b9565b6000818152600260205260408120546001600160a01b0316806103295760405162461bcd60e51b815260206004820152602960248201527f4552433732313a206f776e657220717565727920666f72206e6f6e657869737460448201527f656e7420746f6b656e00000000000000000000000000000000000000000000006064820152608401610436565b60006001600160a01b0382166107ce5760405162461bcd60e51b815260206004820152602a60248201527f4552433732313a2062616c616e636520717565727920666f7220746865207a6560448201527f726f2061646472657373000000000000000000000000000000000000000000006064820152608401610436565b506001600160a01b031660009081526003602052604090205490565b606060006040518060400160405280601d81526020017f646174613a6170706c69636174696f6e2f6a736f6e3b6261736536342c00000081525090508061083b846040516020016106669190611ada565b60405160200161084c929190611aab565b604051602081830303815290604052915050919050565b60606001805461033e90611cbb565b6001600160a01b0382163314156108cb5760405162461bcd60e51b815260206004820152601960248201527f4552433732313a20617070726f766520746f2063616c6c6572000000000000006044820152606401610436565b3360008181526005602090815260408083206001600160a01b03871680855290835292819020805460ff191686151590811790915590519081529192917f17307eab39ab6107e8899845ad3d59bd9653f200f220920489ca2b5937696c31910160405180910390a35050565b610943336007546110bf565b600061094e82610614565b9050600061095b826107ea565b9050610969600754826110dd565b6007547ff5acc616aa8ecd00e5d76674d7812f9c3c3571d662c9fba4499deefa6d0be12d8260405161099b9190611c1a565b60405180910390a26007546109b1906001611c2d565b600755505050565b6109c33383610c55565b610a355760405162461bcd60e51b815260206004820152603160248201527f4552433732313a207472616e736665722063616c6c6572206973206e6f74206f60448201527f776e6572206e6f7220617070726f7665640000000000000000000000000000006064820152608401610436565b610a4184848484611186565b50505050565b6000818152600260205260409020546060906001600160a01b0316610ad45760405162461bcd60e51b815260206004820152603160248201527f45524337323155524953746f726167653a2055524920717565727920666f722060448201527f6e6f6e6578697374656e7420746f6b656e0000000000000000000000000000006064820152608401610436565b60008281526006602052604081208054610aed90611cbb565b80601f0160208091040260200160405190810160405280929190818152602001828054610b1990611cbb565b8015610b665780601f10610b3b57610100808354040283529160200191610b66565b820191906000526020600020905b815481529060010190602001808311610b4957829003601f168201915b505050505090506000610b8460408051602081019091526000815290565b9050805160001415610b97575092915050565b815115610bc9578082604051602001610bb1929190611aab565b60405160208183030381529060405292505050919050565b610bd284611204565b949350505050565b6000818152600460205260409020805473ffffffffffffffffffffffffffffffffffffffff19166001600160a01b0384169081179091558190610c1c826106c5565b6001600160a01b03167f8c5be1e5ebec7d5bd14f71427d1e84f3dd0314c0f7b2291e5b200ac8c7c3b92560405160405180910390a45050565b6000818152600260205260408120546001600160a01b0316610cce5760405162461bcd60e51b815260206004820152602c60248201527f4552433732313a206f70657261746f7220717565727920666f72206e6f6e657860448201526b34b9ba32b73a103a37b5b2b760a11b6064820152608401610436565b6000610cd9836106c5565b9050806001600160a01b0316846001600160a01b03161480610d145750836001600160a01b0316610d09846103c1565b6001600160a01b0316145b80610bd257506001600160a01b0380821660009081526005602090815260408083209388168352929052205460ff16610bd2565b826001600160a01b0316610d5b826106c5565b6001600160a01b031614610dd75760405162461bcd60e51b815260206004820152602960248201527f4552433732313a207472616e73666572206f6620746f6b656e2074686174206960448201527f73206e6f74206f776e00000000000000000000000000000000000000000000006064820152608401610436565b6001600160a01b038216610e525760405162461bcd60e51b8152602060048201526024808201527f4552433732313a207472616e7366657220746f20746865207a65726f2061646460448201527f72657373000000000000000000000000000000000000000000000000000000006064820152608401610436565b610e5d600082610bda565b6001600160a01b0383166000908152600360205260408120805460019290610e86908490611c78565b90915550506001600160a01b0382166000908152600360205260408120805460019290610eb4908490611c2d565b9091555050600081815260026020526040808220805473ffffffffffffffffffffffffffffffffffffffff19166001600160a01b0386811691821790925591518493918716917fddf252ad1be2c89b69c2b068fc378daa952ba7f163c4a11628f55a4df523b3ef91a4505050565b6060815160001415610f4257505060408051602081019091526000815290565b6000604051806060016040528060408152602001611d976040913990506000600384516002610f719190611c2d565b610f7b9190611c45565b610f86906004611c59565b90506000610f95826020611c2d565b67ffffffffffffffff811115610fad57610fad611d67565b6040519080825280601f01601f191660200182016040528015610fd7576020820181803683370190505b509050818152600183018586518101602084015b81831015611043576003830192508251603f8160121c168501518253600182019150603f81600c1c168501518253600182019150603f8160061c168501518253600182019150603f8116850151825350600101610feb565b60038951066001811461105d5760028114611089576110b1565b7f3d3d0000000000000000000000000000000000000000000000000000000000006001198301526110b1565b7f3d000000000000000000000000000000000000000000000000000000000000006000198301525b509398975050505050505050565b6110d98282604051806020016040528060008152506112d9565b5050565b6000828152600260205260409020546001600160a01b03166111675760405162461bcd60e51b815260206004820152602e60248201527f45524337323155524953746f726167653a2055524920736574206f66206e6f6e60448201527f6578697374656e7420746f6b656e0000000000000000000000000000000000006064820152608401610436565b6000828152600660209081526040909120825161058892840190611730565b611191848484610d48565b61119d84848484611357565b610a415760405162461bcd60e51b815260206004820152603260248201527f4552433732313a207472616e7366657220746f206e6f6e20455243373231526560448201527131b2b4bb32b91034b6b83632b6b2b73a32b960711b6064820152608401610436565b6000818152600260205260409020546060906001600160a01b03166112915760405162461bcd60e51b815260206004820152602f60248201527f4552433732314d657461646174613a2055524920717565727920666f72206e6f60448201527f6e6578697374656e7420746f6b656e00000000000000000000000000000000006064820152608401610436565b60006112a860408051602081019091526000815290565b905060008151116112c857604051806020016040528060008152506112d2565b8061083b846114af565b9392505050565b6112e383836115e1565b6112f06000848484611357565b6105885760405162461bcd60e51b815260206004820152603260248201527f4552433732313a207472616e7366657220746f206e6f6e20455243373231526560448201527131b2b4bb32b91034b6b83632b6b2b73a32b960711b6064820152608401610436565b60006001600160a01b0384163b156114a457604051630a85bd0160e11b81526001600160a01b0385169063150b7a029061139b903390899088908890600401611bde565b602060405180830381600087803b1580156113b557600080fd5b505af19250505080156113e5575060408051601f3d908101601f191682019092526113e2918101906119e4565b60015b61148a573d808015611413576040519150601f19603f3d011682016040523d82523d6000602084013e611418565b606091505b5080516114825760405162461bcd60e51b815260206004820152603260248201527f4552433732313a207472616e7366657220746f206e6f6e20455243373231526560448201527131b2b4bb32b91034b6b83632b6b2b73a32b960711b6064820152608401610436565b805181602001fd5b6001600160e01b031916630a85bd0160e11b149050610bd2565b506001949350505050565b6060816114ef57505060408051808201909152600181527f3000000000000000000000000000000000000000000000000000000000000000602082015290565b8160005b8115611519578061150381611cf6565b91506115129050600a83611c45565b91506114f3565b60008167ffffffffffffffff81111561153457611534611d67565b6040519080825280601f01601f19166020018201604052801561155e576020820181803683370190505b5090505b8415610bd257611573600183611c78565b9150611580600a86611d11565b61158b906030611c2d565b60f81b8183815181106115a0576115a0611d51565b60200101907effffffffffffffffffffffffffffffffffffffffffffffffffffffffffffff1916908160001a9053506115da600a86611c45565b9450611562565b6001600160a01b0382166116375760405162461bcd60e51b815260206004820181905260248201527f4552433732313a206d696e7420746f20746865207a65726f20616464726573736044820152606401610436565b6000818152600260205260409020546001600160a01b03161561169c5760405162461bcd60e51b815260206004820152601c60248201527f4552433732313a20746f6b656e20616c7265616479206d696e746564000000006044820152606401610436565b6001600160a01b03821660009081526003602052604081208054600192906116c5908490611c2d565b9091555050600081815260026020526040808220805473ffffffffffffffffffffffffffffffffffffffff19166001600160a01b03861690811790915590518392907fddf252ad1be2c89b69c2b068fc378daa952ba7f163c4a11628f55a4df523b3ef908290a45050565b82805461173c90611cbb565b90600052602060002090601f01602090048101928261175e57600085556117a4565b82601f1061177757805160ff19168380011785556117a4565b828001600101855582156117a4579182015b828111156117a4578251825591602001919060010190611789565b506117b09291506117b4565b5090565b5b808211156117b057600081556001016117b5565b600067ffffffffffffffff808411156117e4576117e4611d67565b604051601f8501601f19908116603f0116810190828211818310171561180c5761180c611d67565b8160405280935085815286868601111561182557600080fd5b858560208301376000602087830101525050509392505050565b80356001600160a01b038116811461185657600080fd5b919050565b60006020828403121561186d57600080fd5b6112d28261183f565b6000806040838503121561188957600080fd5b6118928361183f565b91506118a06020840161183f565b90509250929050565b6000806000606084860312156118be57600080fd5b6118c78461183f565b92506118d56020850161183f565b9150604084013590509250925092565b600080600080608085870312156118fb57600080fd5b6119048561183f565b93506119126020860161183f565b925060408501359150606085013567ffffffffffffffff81111561193557600080fd5b8501601f8101871361194657600080fd5b611955878235602084016117c9565b91505092959194509250565b6000806040838503121561197457600080fd5b61197d8361183f565b91506020830135801515811461199257600080fd5b809150509250929050565b600080604083850312156119b057600080fd5b6119b98361183f565b946020939093013593505050565b6000602082840312156119d957600080fd5b81356112d281611d7d565b6000602082840312156119f657600080fd5b81516112d281611d7d565b600060208284031215611a1357600080fd5b813567ffffffffffffffff811115611a2a57600080fd5b8201601f81018413611a3b57600080fd5b610bd2848235602084016117c9565b600060208284031215611a5c57600080fd5b5035919050565b60008151808452611a7b816020860160208601611c8f565b601f01601f19169290920160200192915050565b60008251611aa1818460208701611c8f565b9190910192915050565b60008351611abd818460208801611c8f565b835190830190611ad1818360208801611c8f565b01949350505050565b7f7b226e616d65223a2022535647204e4654222c2000000000000000000000000081527f226465736372697074696f6e223a2022416e204e4654206261736564206f6e2060148201527f53564721222c200000000000000000000000000000000000000000000000000060348201527f2261747472696275746573223a2022222c200000000000000000000000000000603b8201527f22696d616765223a202200000000000000000000000000000000000000000000604d82015260008251611baa816057850160208701611c8f565b7f227d0000000000000000000000000000000000000000000000000000000000006057939091019283015250605901919050565b60006001600160a01b03808716835280861660208401525083604083015260806060830152611c106080830184611a63565b9695505050505050565b6020815260006112d26020830184611a63565b60008219821115611c4057611c40611d25565b500190565b600082611c5457611c54611d3b565b500490565b6000816000190483118215151615611c7357611c73611d25565b500290565b600082821015611c8a57611c8a611d25565b500390565b60005b83811015611caa578181015183820152602001611c92565b83811115610a415750506000910152565b600181811c90821680611ccf57607f821691505b60208210811415611cf057634e487b7160e01b600052602260045260246000fd5b50919050565b6000600019821415611d0a57611d0a611d25565b5060010190565b600082611d2057611d20611d3b565b500690565b634e487b7160e01b600052601160045260246000fd5b634e487b7160e01b600052601260045260246000fd5b634e487b7160e01b600052603260045260246000fd5b634e487b7160e01b600052604160045260246000fd5b6001600160e01b031981168114611d9357600080fd5b5056fe4142434445464748494a4b4c4d4e4f505152535455565758595a6162636465666768696a6b6c6d6e6f707172737475767778797a303132333435363738392b2fa2646970667358221220e8e0505db1940571ef6ec1acefe9eac0de05526bcfd3b5be79e1e98529b84b0964736f6c63430008070033",
  "devdoc": {
    "kind": "dev",
    "methods": {
      "approve(address,uint256)": {
        "details": "See {IERC721-approve}."
      },
      "balanceOf(address)": {
        "details": "See {IERC721-balanceOf}."
      },
      "getApproved(uint256)": {
        "details": "See {IERC721-getApproved}."
      },
      "isApprovedForAll(address,address)": {
        "details": "See {IERC721-isApprovedForAll}."
      },
      "name()": {
        "details": "See {IERC721Metadata-name}."
      },
      "ownerOf(uint256)": {
        "details": "See {IERC721-ownerOf}."
      },
      "safeTransferFrom(address,address,uint256)": {
        "details": "See {IERC721-safeTransferFrom}."
      },
      "safeTransferFrom(address,address,uint256,bytes)": {
        "details": "See {IERC721-safeTransferFrom}."
      },
      "setApprovalForAll(address,bool)": {
        "details": "See {IERC721-setApprovalForAll}."
      },
      "supportsInterface(bytes4)": {
        "details": "See {IERC165-supportsInterface}."
      },
      "symbol()": {
        "details": "See {IERC721Metadata-symbol}."
      },
      "tokenURI(uint256)": {
        "details": "See {IERC721Metadata-tokenURI}."
      },
      "transferFrom(address,address,uint256)": {
        "details": "See {IERC721-transferFrom}."
      }
    },
    "version": 1
  },
  "userdoc": {
    "kind": "user",
    "methods": {},
    "version": 1
  },
  "storageLayout": {
    "storage": [
      {
        "astId": 103,
        "contract": "contracts/SVGNFT.sol:SVGNFT",
        "label": "_name",
        "offset": 0,
        "slot": "0",
        "type": "t_string_storage"
      },
      {
        "astId": 105,
        "contract": "contracts/SVGNFT.sol:SVGNFT",
        "label": "_symbol",
        "offset": 0,
        "slot": "1",
        "type": "t_string_storage"
      },
      {
        "astId": 109,
        "contract": "contracts/SVGNFT.sol:SVGNFT",
        "label": "_owners",
        "offset": 0,
        "slot": "2",
        "type": "t_mapping(t_uint256,t_address)"
      },
      {
        "astId": 113,
        "contract": "contracts/SVGNFT.sol:SVGNFT",
        "label": "_balances",
        "offset": 0,
        "slot": "3",
        "type": "t_mapping(t_address,t_uint256)"
      },
      {
        "astId": 117,
        "contract": "contracts/SVGNFT.sol:SVGNFT",
        "label": "_tokenApprovals",
        "offset": 0,
        "slot": "4",
        "type": "t_mapping(t_uint256,t_address)"
      },
      {
        "astId": 123,
        "contract": "contracts/SVGNFT.sol:SVGNFT",
        "label": "_operatorApprovals",
        "offset": 0,
        "slot": "5",
        "type": "t_mapping(t_address,t_mapping(t_address,t_bool))"
      },
      {
        "astId": 1040,
        "contract": "contracts/SVGNFT.sol:SVGNFT",
        "label": "_tokenURIs",
        "offset": 0,
        "slot": "6",
        "type": "t_mapping(t_uint256,t_string_storage)"
      },
      {
        "astId": 2805,
        "contract": "contracts/SVGNFT.sol:SVGNFT",
        "label": "tokenCounter",
        "offset": 0,
        "slot": "7",
        "type": "t_uint256"
      }
    ],
    "types": {
      "t_address": {
        "encoding": "inplace",
        "label": "address",
        "numberOfBytes": "20"
      },
      "t_bool": {
        "encoding": "inplace",
        "label": "bool",
        "numberOfBytes": "1"
      },
      "t_mapping(t_address,t_bool)": {
        "encoding": "mapping",
        "key": "t_address",
        "label": "mapping(address => bool)",
        "numberOfBytes": "32",
        "value": "t_bool"
      },
      "t_mapping(t_address,t_mapping(t_address,t_bool))": {
        "encoding": "mapping",
        "key": "t_address",
        "label": "mapping(address => mapping(address => bool))",
        "numberOfBytes": "32",
        "value": "t_mapping(t_address,t_bool)"
      },
      "t_mapping(t_address,t_uint256)": {
        "encoding": "mapping",
        "key": "t_address",
        "label": "mapping(address => uint256)",
        "numberOfBytes": "32",
        "value": "t_uint256"
      },
      "t_mapping(t_uint256,t_address)": {
        "encoding": "mapping",
        "key": "t_uint256",
        "label": "mapping(uint256 => address)",
        "numberOfBytes": "32",
        "value": "t_address"
      },
      "t_mapping(t_uint256,t_string_storage)": {
        "encoding": "mapping",
        "key": "t_uint256",
        "label": "mapping(uint256 => string)",
        "numberOfBytes": "32",
        "value": "t_string_storage"
      },
      "t_string_storage": {
        "encoding": "bytes",
        "label": "string",
        "numberOfBytes": "32"
      },
      "t_uint256": {
        "encoding": "inplace",
        "label": "uint256",
        "numberOfBytes": "32"
      }
    }
  }
}