{
  "address": "0x0a0bD51AF2FbcdF1F6D25C0E2801c28fa9488e80",
  "abi": [
    {
      "inputs": [
        {
          "internalType": "address",
          "name": "_VRFCoordinator",
          "type": "address"
        },
        {
          "internalType": "address",
          "name": "_linkToken",
          "type": "address"
        },
        {
          "internalType": "bytes32",
          "name": "_keyHash",
          "type": "bytes32"
        },
        {
          "internalType": "uint256",
          "name": "_fee",
          "type": "uint256"
        }
      ],
      "stateMutability": "nonpayable",
      "type": "constructor"
    },
    {
      "anonymous": false,
      "inputs": [
        {
          "indexed": true,
          "internalType": "address",
          "name": "owner",
          "type": "address"
        },
        {
          "indexed": true,
          "internalType": "address",
          "name": "approved",
          "type": "address"
        },
        {
          "indexed": true,
          "internalType": "uint256",
          "name": "tokenId",
          "type": "uint256"
        }
      ],
      "name": "Approval",
      "type": "event"
    },
    {
      "anonymous": false,
      "inputs": [
        {
          "indexed": true,
          "internalType": "address",
          "name": "owner",
          "type": "address"
        },
        {
          "indexed": true,
          "internalType": "address",
          "name": "operator",
          "type": "address"
        },
        {
          "indexed": false,
          "internalType": "bool",
          "name": "approved",
          "type": "bool"
        }
      ],
      "name": "ApprovalForAll",
      "type": "event"
    },
    {
      "anonymous": false,
      "inputs": [
        {
          "indexed": true,
          "internalType": "uint256",
          "name": "tokenId",
          "type": "uint256"
        },
        {
          "indexed": false,
          "internalType": "string",
          "name": "svg",
          "type": "string"
        }
      ],
      "name": "CreatedRandomSVG",
      "type": "event"
    },
    {
      "anonymous": false,
      "inputs": [
        {
          "indexed": true,
          "internalType": "uint256",
          "name": "tokenId",
          "type": "uint256"
        },
        {
          "indexed": false,
          "internalType": "uint256",
          "name": "randomNumber",
          "type": "uint256"
        }
      ],
      "name": "CreatedUnfinishedRandomSVG",
      "type": "event"
    },
    {
      "anonymous": false,
      "inputs": [
        {
          "indexed": true,
          "internalType": "bytes32",
          "name": "requestId",
          "type": "bytes32"
        },
        {
          "indexed": true,
          "internalType": "uint256",
          "name": "tokenId",
          "type": "uint256"
        }
      ],
      "name": "RequestedRandomSVG",
      "type": "event"
    },
    {
      "anonymous": false,
      "inputs": [
        {
          "indexed": true,
          "internalType": "address",
          "name": "from",
          "type": "address"
        },
        {
          "indexed": true,
          "internalType": "address",
          "name": "to",
          "type": "address"
        },
        {
          "indexed": true,
          "internalType": "uint256",
          "name": "tokenId",
          "type": "uint256"
        }
      ],
      "name": "Transfer",
      "type": "event"
    },
    {
      "inputs": [
        {
          "internalType": "address",
          "name": "to",
          "type": "address"
        },
        {
          "internalType": "uint256",
          "name": "tokenId",
          "type": "uint256"
        }
      ],
      "name": "approve",
      "outputs": [],
      "stateMutability": "nonpayable",
      "type": "function"
    },
    {
      "inputs": [
        {
          "internalType": "address",
          "name": "owner",
          "type": "address"
        }
      ],
      "name": "balanceOf",
      "outputs": [
        {
          "internalType": "uint256",
          "name": "",
          "type": "uint256"
        }
      ],
      "stateMutability": "view",
      "type": "function"
    },
    {
      "inputs": [
        {
          "internalType": "uint256",
          "name": "",
          "type": "uint256"
        }
      ],
      "name": "colors",
      "outputs": [
        {
          "internalType": "string",
          "name": "",
          "type": "string"
        }
      ],
      "stateMutability": "view",
      "type": "function"
    },
    {
      "inputs": [],
      "name": "create",
      "outputs": [
        {
          "internalType": "bytes32",
          "name": "requestId",
          "type": "bytes32"
        }
      ],
      "stateMutability": "payable",
      "type": "function"
    },
    {
      "inputs": [
        {
          "internalType": "uint256",
          "name": "_tokenId",
          "type": "uint256"
        }
      ],
      "name": "finishMint",
      "outputs": [],
      "stateMutability": "nonpayable",
      "type": "function"
    },
    {
      "inputs": [
        {
          "internalType": "string",
          "name": "_imageUri",
          "type": "string"
        }
      ],
      "name": "formatTokenURI",
      "outputs": [
        {
          "internalType": "string",
          "name": "",
          "type": "string"
        }
      ],
      "stateMutability": "pure",
      "type": "function"
    },
    {
      "inputs": [
        {
          "internalType": "uint256",
          "name": "_randomNumber",
          "type": "uint256"
        }
      ],
      "name": "generatePath",
      "outputs": [
        {
          "internalType": "string",
          "name": "pathSvg",
          "type": "string"
        }
      ],
      "stateMutability": "view",
      "type": "function"
    },
    {
      "inputs": [
        {
          "internalType": "uint256",
          "name": "_randomNumber",
          "type": "uint256"
        }
      ],
      "name": "generatePathCommand",
      "outputs": [
        {
          "internalType": "string",
          "name": "pathCommand",
          "type": "string"
        }
      ],
      "stateMutability": "view",
      "type": "function"
    },
    {
      "inputs": [
        {
          "internalType": "uint256",
          "name": "_randomNumber",
          "type": "uint256"
        }
      ],
      "name": "generateSVG",
      "outputs": [
        {
          "internalType": "string",
          "name": "finalSvg",
          "type": "string"
        }
      ],
      "stateMutability": "view",
      "type": "function"
    },
    {
      "inputs": [
        {
          "internalType": "uint256",
          "name": "tokenId",
          "type": "uint256"
        }
      ],
      "name": "getApproved",
      "outputs": [
        {
          "internalType": "address",
          "name": "",
          "type": "address"
        }
      ],
      "stateMutability": "view",
      "type": "function"
    },
    {
      "inputs": [
        {
          "internalType": "address",
          "name": "owner",
          "type": "address"
        },
        {
          "internalType": "address",
          "name": "operator",
          "type": "address"
        }
      ],
      "name": "isApprovedForAll",
      "outputs": [
        {
          "internalType": "bool",
          "name": "",
          "type": "bool"
        }
      ],
      "stateMutability": "view",
      "type": "function"
    },
    {
      "inputs": [],
      "name": "maxNumberOfPathCommands",
      "outputs": [
        {
          "internalType": "uint256",
          "name": "",
          "type": "uint256"
        }
      ],
      "stateMutability": "view",
      "type": "function"
    },
    {
      "inputs": [],
      "name": "maxNumberOfPaths",
      "outputs": [
        {
          "internalType": "uint256",
          "name": "",
          "type": "uint256"
        }
      ],
      "stateMutability": "view",
      "type": "function"
    },
    {
      "inputs": [],
      "name": "name",
      "outputs": [
        {
          "internalType": "string",
          "name": "",
          "type": "string"
        }
      ],
      "stateMutability": "view",
      "type": "function"
    },
    {
      "inputs": [],
      "name": "owner",
      "outputs": [
        {
          "internalType": "address payable",
          "name": "",
          "type": "address"
        }
      ],
      "stateMutability": "view",
      "type": "function"
    },
    {
      "inputs": [
        {
          "internalType": "uint256",
          "name": "tokenId",
          "type": "uint256"
        }
      ],
      "name": "ownerOf",
      "outputs": [
        {
          "internalType": "address",
          "name": "",
          "type": "address"
        }
      ],
      "stateMutability": "view",
      "type": "function"
    },
    {
      "inputs": [
        {
          "internalType": "uint256",
          "name": "",
          "type": "uint256"
        }
      ],
      "name": "pathCommands",
      "outputs": [
        {
          "internalType": "string",
          "name": "",
          "type": "string"
        }
      ],
      "stateMutability": "view",
      "type": "function"
    },
    {
      "inputs": [],
      "name": "price",
      "outputs": [
        {
          "internalType": "uint256",
          "name": "",
          "type": "uint256"
        }
      ],
      "stateMutability": "view",
      "type": "function"
    },
    {
      "inputs": [
        {
          "internalType": "bytes32",
          "name": "requestId",
          "type": "bytes32"
        },
        {
          "internalType": "uint256",
          "name": "randomness",
          "type": "uint256"
        }
      ],
      "name": "rawFulfillRandomness",
      "outputs": [],
      "stateMutability": "nonpayable",
      "type": "function"
    },
    {
      "inputs": [
        {
          "internalType": "bytes32",
          "name": "",
          "type": "bytes32"
        }
      ],
      "name": "requestIdToSender",
      "outputs": [
        {
          "internalType": "address",
          "name": "",
          "type": "address"
        }
      ],
      "stateMutability": "view",
      "type": "function"
    },
    {
      "inputs": [
        {
          "internalType": "bytes32",
          "name": "",
          "type": "bytes32"
        }
      ],
      "name": "requestIdToTokenId",
      "outputs": [
        {
          "internalType": "uint256",
          "name": "",
          "type": "uint256"
        }
      ],
      "stateMutability": "view",
      "type": "function"
    },
    {
      "inputs": [
        {
          "internalType": "address",
          "name": "from",
          "type": "address"
        },
        {
          "internalType": "address",
          "name": "to",
          "type": "address"
        },
        {
          "internalType": "uint256",
          "name": "tokenId",
          "type": "uint256"
        }
      ],
      "name": "safeTransferFrom",
      "outputs": [],
      "stateMutability": "nonpayable",
      "type": "function"
    },
    {
      "inputs": [
        {
          "internalType": "address",
          "name": "from",
          "type": "address"
        },
        {
          "internalType": "address",
          "name": "to",
          "type": "address"
        },
        {
          "internalType": "uint256",
          "name": "tokenId",
          "type": "uint256"
        },
        {
          "internalType": "bytes",
          "name": "_data",
          "type": "bytes"
        }
      ],
      "name": "safeTransferFrom",
      "outputs": [],
      "stateMutability": "nonpayable",
      "type": "function"
    },
    {
      "inputs": [
        {
          "internalType": "address",
          "name": "operator",
          "type": "address"
        },
        {
          "internalType": "bool",
          "name": "approved",
          "type": "bool"
        }
      ],
      "name": "setApprovalForAll",
      "outputs": [],
      "stateMutability": "nonpayable",
      "type": "function"
    },
    {
      "inputs": [],
      "name": "size",
      "outputs": [
        {
          "internalType": "uint256",
          "name": "",
          "type": "uint256"
        }
      ],
      "stateMutability": "view",
      "type": "function"
    },
    {
      "inputs": [
        {
          "internalType": "bytes4",
          "name": "interfaceId",
          "type": "bytes4"
        }
      ],
      "name": "supportsInterface",
      "outputs": [
        {
          "internalType": "bool",
          "name": "",
          "type": "bool"
        }
      ],
      "stateMutability": "view",
      "type": "function"
    },
    {
      "inputs": [
        {
          "internalType": "string",
          "name": "_svg",
          "type": "string"
        }
      ],
      "name": "svgToImageURI",
      "outputs": [
        {
          "internalType": "string",
          "name": "",
          "type": "string"
        }
      ],
      "stateMutability": "pure",
      "type": "function"
    },
    {
      "inputs": [],
      "name": "symbol",
      "outputs": [
        {
          "internalType": "string",
          "name": "",
          "type": "string"
        }
      ],
      "stateMutability": "view",
      "type": "function"
    },
    {
      "inputs": [
        {
          "internalType": "uint256",
          "name": "",
          "type": "uint256"
        }
      ],
      "name": "tokenIdToRandomNumber",
      "outputs": [
        {
          "internalType": "uint256",
          "name": "",
          "type": "uint256"
        }
      ],
      "stateMutability": "view",
      "type": "function"
    },
    {
      "inputs": [
        {
          "internalType": "uint256",
          "name": "tokenId",
          "type": "uint256"
        }
      ],
      "name": "tokenURI",
      "outputs": [
        {
          "internalType": "string",
          "name": "",
          "type": "string"
        }
      ],
      "stateMutability": "view",
      "type": "function"
    },
    {
      "inputs": [
        {
          "internalType": "address",
          "name": "from",
          "type": "address"
        },
        {
          "internalType": "address",
          "name": "to",
          "type": "address"
        },
        {
          "internalType": "uint256",
          "name": "tokenId",
          "type": "uint256"
        }
      ],
      "name": "transferFrom",
      "outputs": [],
      "stateMutability": "nonpayable",
      "type": "function"
    },
    {
      "inputs": [],
      "name": "withdraw",
      "outputs": [],
      "stateMutability": "payable",
      "type": "function"
    }
  ],
  "transactionHash": "0x879a9db0ba32c4bbc2a0f0b76dbc9b462619bf0a706d862b548ace658f6ed918",
  "args": [
    "0xb3dCcb4Cf7a26f6cf6B120Cf5A73875B7BBc655B",
    "0x01BE23585060835E02B77ef475b0Cc51aA1e0709",
    "0x2ed0feb3e7fd2022120aa84fab1945545a9f2ffc9076fd6156fa96eaff4c1311",
    "100000000000000000"
  ],
  "solcInputHash": "dc436ed87c63267c49db9a72b69f177a",
  "bytecode": "0x60c06040523480156200001157600080fd5b5060405162003391380380620033918339810160408190526200003491620003d1565b604080518082018252600a81526952616e646f6d2053564760b01b6020808301918252835180850190945260058452641c9cd3919560da1b908401528151879387939290916200008791600091620001f9565b5080516200009d906001906020840190620001f9565b5050506001600160601b0319606092831b811660a05290821b166080908152600884905560098390556000600a908155600d556005600e556101f4600f556040805191820181526001828201818152604d60f81b948401949094529282528051808201909152918252601360fa1b6020838101919091528101919091526200012a90601090600262000288565b5060405180608001604052806040518060400160405280600381526020016214995960ea1b815250815260200160405180604001604052806004815260200163426c756560e01b81525081526020016040518060400160405280600681526020016559656c6c6f7760d01b815250815260200160405180604001604052806005815260200164426c61636b60d81b8152508152506011906004620001d0929190620002e8565b505067016345785d8a0000600b555050600c80546001600160a01b031916331790555062000456565b828054620002079062000419565b90600052602060002090601f0160209004810192826200022b576000855562000276565b82601f106200024657805160ff191683800117855562000276565b8280016001018555821562000276579182015b828111156200027657825182559160200191906001019062000259565b50620002849291506200033a565b5090565b828054828255906000526020600020908101928215620002da579160200282015b82811115620002da5782518051620002c9918491602090910190620001f9565b5091602001919060010190620002a9565b506200028492915062000351565b828054828255906000526020600020908101928215620002da579160200282015b82811115620002da578251805162000329918491602090910190620001f9565b509160200191906001019062000309565b5b808211156200028457600081556001016200033b565b808211156200028457600062000368828262000372565b5060010162000351565b508054620003809062000419565b6000825580601f1062000391575050565b601f016020900490600052602060002090810190620003b191906200033a565b50565b80516001600160a01b0381168114620003cc57600080fd5b919050565b60008060008060808587031215620003e857600080fd5b620003f385620003b4565b93506200040360208601620003b4565b6040860151606090960151949790965092505050565b600181811c908216806200042e57607f821691505b602082108114156200045057634e487b7160e01b600052602260045260246000fd5b50919050565b60805160601c60a05160601c612f08620004896000396000818161109b0152611fda01526000611fab0152612f086000f3fe6080604052600436106101e35760003560e01c806371aee19311610102578063a22cb46511610095578063c68b49d111610064578063c68b49d11461058c578063c87b56dd146105ac578063e985e9c5146105cc578063efc81a8c1461061557600080fd5b8063a22cb46514610516578063b88d4fde14610536578063bd11f69d14610556578063c21bf36f1461057657600080fd5b8063955968d4116100d1578063955968d41461049e57806395d89b41146104be5780639c1cd795146104d3578063a035b1fe1461050057600080fd5b806371aee193146104285780638da5cb5b1461044857806394985ddd14610468578063949d225d1461048857600080fd5b806333af59891161017a578063624194c711610149578063624194c7146103a85780636352211e146103c85780636dcee4ca146103e857806370a082311461040857600080fd5b806333af59891461034a5780633ccfd60b1461036a57806342842e0e1461037257806348e896ab1461039257600080fd5b8063219c0eee116101b6578063219c0eee1461029957806322881f88146102cf57806323b872dd1461030a57806330d871c61461032a57600080fd5b806301ffc9a7146101e857806306fdde031461021d578063081812fc1461023f578063095ea7b314610277575b600080fd5b3480156101f457600080fd5b50610208610203366004612871565b61061d565b60405190151581526020015b60405180910390f35b34801561022957600080fd5b506102326106ba565b6040516102149190612ce6565b34801561024b57600080fd5b5061025f61025a366004612836565b61074c565b6040516001600160a01b039091168152602001610214565b34801561028357600080fd5b506102976102923660046127ef565b6107e6565b005b3480156102a557600080fd5b5061025f6102b4366004612836565b6012602052600090815260409020546001600160a01b031681565b3480156102db57600080fd5b506102fc6102ea366004612836565b60136020526000908152604090205481565b604051908152602001610214565b34801561031657600080fd5b50610297610325366004612700565b610918565b34801561033657600080fd5b506102326103453660046128ab565b61099f565b34801561035657600080fd5b50610232610365366004612836565b610a35565b610297610bdb565b34801561037e57600080fd5b5061029761038d366004612700565b610c71565b34801561039e57600080fd5b506102fc600e5481565b3480156103b457600080fd5b506102976103c3366004612836565b610c8c565b3480156103d457600080fd5b5061025f6103e3366004612836565b610e10565b3480156103f457600080fd5b50610232610403366004612836565b610e9b565b34801561041457600080fd5b506102fc6104233660046126b2565b610f94565b34801561043457600080fd5b506102326104433660046128ab565b61102e565b34801561045457600080fd5b50600c5461025f906001600160a01b031681565b34801561047457600080fd5b5061029761048336600461284f565b611090565b34801561049457600080fd5b506102fc600f5481565b3480156104aa57600080fd5b506102326104b9366004612836565b611116565b3480156104ca57600080fd5b506102326111c2565b3480156104df57600080fd5b506102fc6104ee366004612836565b60146020526000908152604090205481565b34801561050c57600080fd5b506102fc600b5481565b34801561052257600080fd5b506102976105313660046127b8565b6111d1565b34801561054257600080fd5b5061029761055136600461273c565b611296565b34801561056257600080fd5b50610232610571366004612836565b611324565b34801561058257600080fd5b506102fc600d5481565b34801561059857600080fd5b506102326105a7366004612836565b611334565b3480156105b857600080fd5b506102326105c7366004612836565b6114a6565b3480156105d857600080fd5b506102086105e73660046126cd565b6001600160a01b03918216600090815260056020908152604080832093909416825291909152205460ff1690565b6102fc611621565b60006001600160e01b031982167f80ac58cd00000000000000000000000000000000000000000000000000000000148061068057506001600160e01b031982167f5b5e139f00000000000000000000000000000000000000000000000000000000145b806106b457507f01ffc9a7000000000000000000000000000000000000000000000000000000006001600160e01b03198316145b92915050565b6060600080546106c990612dac565b80601f01602080910402602001604051908101604052809291908181526020018280546106f590612dac565b80156107425780601f1061071757610100808354040283529160200191610742565b820191906000526020600020905b81548152906001019060200180831161072557829003601f168201915b5050505050905090565b6000818152600260205260408120546001600160a01b03166107ca5760405162461bcd60e51b815260206004820152602c60248201527f4552433732313a20617070726f76656420717565727920666f72206e6f6e657860448201526b34b9ba32b73a103a37b5b2b760a11b60648201526084015b60405180910390fd5b506000908152600460205260409020546001600160a01b031690565b60006107f182610e10565b9050806001600160a01b0316836001600160a01b0316141561087b5760405162461bcd60e51b815260206004820152602160248201527f4552433732313a20617070726f76616c20746f2063757272656e74206f776e6560448201527f720000000000000000000000000000000000000000000000000000000000000060648201526084016107c1565b336001600160a01b0382161480610897575061089781336105e7565b6109095760405162461bcd60e51b815260206004820152603860248201527f4552433732313a20617070726f76652063616c6c6572206973206e6f74206f7760448201527f6e6572206e6f7220617070726f76656420666f7220616c6c000000000000000060648201526084016107c1565b6109138383611701565b505050565b610922338261177c565b6109945760405162461bcd60e51b815260206004820152603160248201527f4552433732313a207472616e736665722063616c6c6572206973206e6f74206f60448201527f776e6572206e6f7220617070726f76656400000000000000000000000000000060648201526084016107c1565b61091383838361186f565b606060006040518060400160405280601a81526020017f646174613a696d6167652f7376672b786d6c3b6261736536342c00000000000081525090506000610a05846040516020016109f19190612920565b604051602081830303815290604052611a49565b905060008282604051602001610a1c92919061293c565b60408051601f1981840301815291905295945050505050565b60606000600e5483610a479190612e02565b610a52906001612cf9565b90506040518060400160405280600981526020017f3c7061746820643d270000000000000000000000000000000000000000000000815250915060005b81811015610af857600084600f546001610aa99190612cf9565b6040805160208101939093528201526060016040516020818303038152906040528051906020012060001c90506000610ae186611334565b905050508080610af090612de7565b915050610a8f565b506011805460009190610b0b9086612e02565b81548110610b1b57610b1b612e42565b906000526020600020018054610b3090612dac565b80601f0160208091040260200160405190810160405280929190818152602001828054610b5c90612dac565b8015610ba95780601f10610b7e57610100808354040283529160200191610ba9565b820191906000526020600020905b815481529060010190602001808311610b8c57829003601f168201915b505050505090508281604051602001610bc392919061296b565b60405160208183030381529060405292505050919050565b600c546001600160a01b03163314610c355760405162461bcd60e51b815260206004820152600960248201527f6e6f74206f776e6572000000000000000000000000000000000000000000000060448201526064016107c1565b600c546040516001600160a01b03909116904780156108fc02916000818181858888f19350505050158015610c6e573d6000803e3d6000fd5b50565b61091383838360405180602001604052806000815250611296565b6000610c97826114a6565b511115610ce65760405162461bcd60e51b815260206004820152601560248201527f746f6b656e2075726920616c726561647920736574000000000000000000000060448201526064016107c1565b80600a5411610d375760405162461bcd60e51b815260206004820152601f60248201527f546f6b656e444920686173206e6f74206265656e206d696e746564207965740060448201526064016107c1565b600081815260146020526040902054610d925760405162461bcd60e51b815260206004820152601e60248201527f4e65656420746f207761697420666f7220436861696e6c696e6b20565246000060448201526064016107c1565b60008181526014602052604081205490610dab82610e9b565b90506000610db88261099f565b90506000610dc58261102e565b9050610dd18582611be6565b847f15a6487b7915a7116ce2a61d43b17e9b47484b1931f3c79f2f3d139b307b389384604051610e019190612ce6565b60405180910390a25050505050565b6000818152600260205260408120546001600160a01b0316806106b45760405162461bcd60e51b815260206004820152602960248201527f4552433732313a206f776e657220717565727920666f72206e6f6e657869737460448201527f656e7420746f6b656e000000000000000000000000000000000000000000000060648201526084016107c1565b60606000600d5483610ead9190612e02565b610eb8906001612cf9565b9050610ec5600f54611c8f565b610ed0600f54611c8f565b604051602001610ee1929190612ba8565b604051602081830303815290604052915060005b81811015610f6b57604080516020808201879052818301849052825180830384018152606090920190925280519101206000610f3082610a35565b90508481604051602001610f4592919061293c565b604051602081830303815290604052945050508080610f6390612de7565b915050610ef5565b5081604051602001610f7d9190612a63565b604051602081830303815290604052915050919050565b60006001600160a01b0382166110125760405162461bcd60e51b815260206004820152602a60248201527f4552433732313a2062616c616e636520717565727920666f7220746865207a6560448201527f726f20616464726573730000000000000000000000000000000000000000000060648201526084016107c1565b506001600160a01b031660009081526003602052604090205490565b606060006040518060400160405280601d81526020017f646174613a6170706c69636174696f6e2f6a736f6e3b6261736536342c00000081525090508061107f846040516020016109f19190612aa4565b604051602001610f7d92919061293c565b336001600160a01b037f000000000000000000000000000000000000000000000000000000000000000016146111085760405162461bcd60e51b815260206004820152601f60248201527f4f6e6c7920565246436f6f7264696e61746f722063616e2066756c66696c6c0060448201526064016107c1565b6111128282611dd0565b5050565b6010818154811061112657600080fd5b90600052602060002001600091509050805461114190612dac565b80601f016020809104026020016040519081016040528092919081815260200182805461116d90612dac565b80156111ba5780601f1061118f576101008083540402835291602001916111ba565b820191906000526020600020905b81548152906001019060200180831161119d57829003601f168201915b505050505081565b6060600180546106c990612dac565b6001600160a01b03821633141561122a5760405162461bcd60e51b815260206004820152601960248201527f4552433732313a20617070726f766520746f2063616c6c65720000000000000060448201526064016107c1565b3360008181526005602090815260408083206001600160a01b03871680855290835292819020805460ff191686151590811790915590519081529192917f17307eab39ab6107e8899845ad3d59bd9653f200f220920489ca2b5937696c31910160405180910390a35050565b6112a0338361177c565b6113125760405162461bcd60e51b815260206004820152603160248201527f4552433732313a207472616e736665722063616c6c6572206973206e6f74206f60448201527f776e6572206e6f7220617070726f76656400000000000000000000000000000060648201526084016107c1565b61131e84848484611e54565b50505050565b6011818154811061112657600080fd5b60108054606091906113469084612e02565b8154811061135657611356612e42565b90600052602060002001805461136b90612dac565b80601f016020809104026020016040519081016040528092919081815260200182805461139790612dac565b80156113e45780601f106113b9576101008083540402835291602001916113e4565b820191906000526020600020905b8154815290600101906020018083116113c757829003601f168201915b505050505090506000600f5483600f5460026114009190612d4a565b6040805160208101939093528201526060016040516020818303038152906040528051906020012060001c6114359190612e02565b600f549091506000908461144a826003612d4a565b6040805160208101939093528201526060016040516020818303038152906040528051906020012060001c61147f9190612e02565b90508261148b83611c8f565b61149483611c8f565b604051602001610bc3939291906129ed565b6000818152600260205260409020546060906001600160a01b03166115335760405162461bcd60e51b815260206004820152603160248201527f45524337323155524953746f726167653a2055524920717565727920666f722060448201527f6e6f6e6578697374656e7420746f6b656e00000000000000000000000000000060648201526084016107c1565b6000828152600660205260408120805461154c90612dac565b80601f016020809104026020016040519081016040528092919081815260200182805461157890612dac565b80156115c55780601f1061159a576101008083540402835291602001916115c5565b820191906000526020600020905b8154815290600101906020018083116115a857829003601f168201915b5050505050905060006115e360408051602081019091526000815290565b90508051600014156115f6575092915050565b815115611610578082604051602001610bc392919061293c565b61161984611ed2565b949350505050565b6000600b543410156116755760405162461bcd60e51b815260206004820152601560248201527f6e65656420746f2073656e64206d6f726520657468000000000000000000000060448201526064016107c1565b611683600854600954611fa7565b6000818152601260209081526040808320805473ffffffffffffffffffffffffffffffffffffffff191633179055600a5460139092529091208190559091506116cd816001612cf9565b600a55604051819083907fd18cd6f82baac9078af064ea020dd3dc7bff649bd8d50684f972d5995fec6e6990600090a35090565b6000818152600460205260409020805473ffffffffffffffffffffffffffffffffffffffff19166001600160a01b038416908117909155819061174382610e10565b6001600160a01b03167f8c5be1e5ebec7d5bd14f71427d1e84f3dd0314c0f7b2291e5b200ac8c7c3b92560405160405180910390a45050565b6000818152600260205260408120546001600160a01b03166117f55760405162461bcd60e51b815260206004820152602c60248201527f4552433732313a206f70657261746f7220717565727920666f72206e6f6e657860448201526b34b9ba32b73a103a37b5b2b760a11b60648201526084016107c1565b600061180083610e10565b9050806001600160a01b0316846001600160a01b0316148061183b5750836001600160a01b03166118308461074c565b6001600160a01b0316145b8061161957506001600160a01b0380821660009081526005602090815260408083209388168352929052205460ff16611619565b826001600160a01b031661188282610e10565b6001600160a01b0316146118fe5760405162461bcd60e51b815260206004820152602960248201527f4552433732313a207472616e73666572206f6620746f6b656e2074686174206960448201527f73206e6f74206f776e000000000000000000000000000000000000000000000060648201526084016107c1565b6001600160a01b0382166119795760405162461bcd60e51b8152602060048201526024808201527f4552433732313a207472616e7366657220746f20746865207a65726f2061646460448201527f726573730000000000000000000000000000000000000000000000000000000060648201526084016107c1565b611984600082611701565b6001600160a01b03831660009081526003602052604081208054600192906119ad908490612d69565b90915550506001600160a01b03821660009081526003602052604081208054600192906119db908490612cf9565b9091555050600081815260026020526040808220805473ffffffffffffffffffffffffffffffffffffffff19166001600160a01b0386811691821790925591518493918716917fddf252ad1be2c89b69c2b068fc378daa952ba7f163c4a11628f55a4df523b3ef91a4505050565b6060815160001415611a6957505060408051602081019091526000815290565b6000604051806060016040528060408152602001612e936040913990506000600384516002611a989190612cf9565b611aa29190612d36565b611aad906004612d4a565b90506000611abc826020612cf9565b67ffffffffffffffff811115611ad457611ad4612e58565b6040519080825280601f01601f191660200182016040528015611afe576020820181803683370190505b509050818152600183018586518101602084015b81831015611b6a576003830192508251603f8160121c168501518253600182019150603f81600c1c168501518253600182019150603f8160061c168501518253600182019150603f8116850151825350600101611b12565b600389510660018114611b845760028114611bb057611bd8565b7f3d3d000000000000000000000000000000000000000000000000000000000000600119830152611bd8565b7f3d000000000000000000000000000000000000000000000000000000000000006000198301525b509398975050505050505050565b6000828152600260205260409020546001600160a01b0316611c705760405162461bcd60e51b815260206004820152602e60248201527f45524337323155524953746f726167653a2055524920736574206f66206e6f6e60448201527f6578697374656e7420746f6b656e00000000000000000000000000000000000060648201526084016107c1565b6000828152600660209081526040909120825161091392840190612587565b606081611cb35750506040805180820190915260018152600360fc1b602082015290565b8160005b8115611cdd5780611cc781612de7565b9150611cd69050600a83612d36565b9150611cb7565b60008167ffffffffffffffff811115611cf857611cf8612e58565b6040519080825280601f01601f191660200182016040528015611d22576020820181803683370190505b509050815b8515611dc757611d38600182612d69565b90506000611d47600a88612d36565b611d5290600a612d4a565b611d5c9088612d69565b611d67906030612d11565b905060008160f81b905080848481518110611d8457611d84612e42565b60200101907effffffffffffffffffffffffffffffffffffffffffffffffffffffffffffff1916908160001a905350611dbe600a89612d36565b97505050611d27565b50949350505050565b6000828152601260209081526040808320546013909252909120546001600160a01b0390911690611e018282612132565b600081815260146020526040908190208490555181907faad5362ce528ed941024b95d4c18dfd49b8503e1f586a5c353631d98c2af41b790611e469086815260200190565b60405180910390a250505050565b611e5f84848461186f565b611e6b8484848461214c565b61131e5760405162461bcd60e51b815260206004820152603260248201527f4552433732313a207472616e7366657220746f206e6f6e20455243373231526560448201527131b2b4bb32b91034b6b83632b6b2b73a32b960711b60648201526084016107c1565b6000818152600260205260409020546060906001600160a01b0316611f5f5760405162461bcd60e51b815260206004820152602f60248201527f4552433732314d657461646174613a2055524920717565727920666f72206e6f60448201527f6e6578697374656e7420746f6b656e000000000000000000000000000000000060648201526084016107c1565b6000611f7660408051602081019091526000815290565b90506000815111611f965760405180602001604052806000815250611fa0565b8061107f846122a4565b9392505050565b60007f00000000000000000000000000000000000000000000000000000000000000006001600160a01b0316634000aea07f000000000000000000000000000000000000000000000000000000000000000084866000604051602001612017929190918252602082015260400190565b6040516020818303038152906040526040518463ffffffff1660e01b815260040161204493929190612cb5565b602060405180830381600087803b15801561205e57600080fd5b505af1158015612072573d6000803e3d6000fd5b505050506040513d601f19601f820116820180604052508101906120969190612819565b50600083815260076020818152604080842054815180840189905280830186905230606082015260808082018390528351808303909101815260a0909101909252815191830191909120938790529190526120f2906001612cf9565b6000858152600760205260409020556116198482604080516020808201949094528082019290925280518083038201815260609092019052805191012090565b6111128282604051806020016040528060008152506123ba565b60006001600160a01b0384163b1561229957604051630a85bd0160e11b81526001600160a01b0385169063150b7a0290612190903390899088908890600401612c79565b602060405180830381600087803b1580156121aa57600080fd5b505af19250505080156121da575060408051601f3d908101601f191682019092526121d79181019061288e565b60015b61227f573d808015612208576040519150601f19603f3d011682016040523d82523d6000602084013e61220d565b606091505b5080516122775760405162461bcd60e51b815260206004820152603260248201527f4552433732313a207472616e7366657220746f206e6f6e20455243373231526560448201527131b2b4bb32b91034b6b83632b6b2b73a32b960711b60648201526084016107c1565b805181602001fd5b6001600160e01b031916630a85bd0160e11b149050611619565b506001949350505050565b6060816122c85750506040805180820190915260018152600360fc1b602082015290565b8160005b81156122f257806122dc81612de7565b91506122eb9050600a83612d36565b91506122cc565b60008167ffffffffffffffff81111561230d5761230d612e58565b6040519080825280601f01601f191660200182016040528015612337576020820181803683370190505b5090505b84156116195761234c600183612d69565b9150612359600a86612e02565b612364906030612cf9565b60f81b81838151811061237957612379612e42565b60200101907effffffffffffffffffffffffffffffffffffffffffffffffffffffffffffff1916908160001a9053506123b3600a86612d36565b945061233b565b6123c48383612438565b6123d1600084848461214c565b6109135760405162461bcd60e51b815260206004820152603260248201527f4552433732313a207472616e7366657220746f206e6f6e20455243373231526560448201527131b2b4bb32b91034b6b83632b6b2b73a32b960711b60648201526084016107c1565b6001600160a01b03821661248e5760405162461bcd60e51b815260206004820181905260248201527f4552433732313a206d696e7420746f20746865207a65726f206164647265737360448201526064016107c1565b6000818152600260205260409020546001600160a01b0316156124f35760405162461bcd60e51b815260206004820152601c60248201527f4552433732313a20746f6b656e20616c7265616479206d696e7465640000000060448201526064016107c1565b6001600160a01b038216600090815260036020526040812080546001929061251c908490612cf9565b9091555050600081815260026020526040808220805473ffffffffffffffffffffffffffffffffffffffff19166001600160a01b03861690811790915590518392907fddf252ad1be2c89b69c2b068fc378daa952ba7f163c4a11628f55a4df523b3ef908290a45050565b82805461259390612dac565b90600052602060002090601f0160209004810192826125b557600085556125fb565b82601f106125ce57805160ff19168380011785556125fb565b828001600101855582156125fb579182015b828111156125fb5782518255916020019190600101906125e0565b5061260792915061260b565b5090565b5b80821115612607576000815560010161260c565b600067ffffffffffffffff8084111561263b5761263b612e58565b604051601f8501601f19908116603f0116810190828211818310171561266357612663612e58565b8160405280935085815286868601111561267c57600080fd5b858560208301376000602087830101525050509392505050565b80356001600160a01b03811681146126ad57600080fd5b919050565b6000602082840312156126c457600080fd5b611fa082612696565b600080604083850312156126e057600080fd5b6126e983612696565b91506126f760208401612696565b90509250929050565b60008060006060848603121561271557600080fd5b61271e84612696565b925061272c60208501612696565b9150604084013590509250925092565b6000806000806080858703121561275257600080fd5b61275b85612696565b935061276960208601612696565b925060408501359150606085013567ffffffffffffffff81111561278c57600080fd5b8501601f8101871361279d57600080fd5b6127ac87823560208401612620565b91505092959194509250565b600080604083850312156127cb57600080fd5b6127d483612696565b915060208301356127e481612e6e565b809150509250929050565b6000806040838503121561280257600080fd5b61280b83612696565b946020939093013593505050565b60006020828403121561282b57600080fd5b8151611fa081612e6e565b60006020828403121561284857600080fd5b5035919050565b6000806040838503121561286257600080fd5b50508035926020909101359150565b60006020828403121561288357600080fd5b8135611fa081612e7c565b6000602082840312156128a057600080fd5b8151611fa081612e7c565b6000602082840312156128bd57600080fd5b813567ffffffffffffffff8111156128d457600080fd5b8201601f810184136128e557600080fd5b61161984823560208401612620565b6000815180845261290c816020860160208601612d80565b601f01601f19169290920160200192915050565b60008251612932818460208701612d80565b9190910192915050565b6000835161294e818460208801612d80565b835190830190612962818360208801612d80565b01949350505050565b6000835161297d818460208801612d80565b7f272066696c6c3d277472616e73706172656e7427207374726f6b653d2700000090830190815283516129b781601d840160208801612d80565b7f273e000000000000000000000000000000000000000000000000000000000000601d9290910191820152601f01949350505050565b600084516129ff818460208901612d80565b80830190507f20000000000000000000000000000000000000000000000000000000000000008082528551612a3b816001850160208a01612d80565b60019201918201528351612a56816002840160208801612d80565b0160020195945050505050565b60008251612a75818460208701612d80565b7f3c2f7376673e0000000000000000000000000000000000000000000000000000920191825250600601919050565b7f7b226e616d65223a2022535647204e4654222c2000000000000000000000000081527f226465736372697074696f6e223a2022416e204e4654206261736564206f6e2060148201527f53564721222c200000000000000000000000000000000000000000000000000060348201527f2261747472696275746573223a2022222c200000000000000000000000000000603b8201527f22696d616765223a202200000000000000000000000000000000000000000000604d82015260008251612b74816057850160208701612d80565b7f227d0000000000000000000000000000000000000000000000000000000000006057939091019283015250605901919050565b7f3c73766720786d6c6e733d27687474703a2f2f7777772e77332e6f72672f323081527f30302f73766727206865696768743d2700000000000000000000000000000000602082015260008351612c06816030850160208801612d80565b7f272077696474683d2700000000000000000000000000000000000000000000006030918401918201528351612c43816039840160208801612d80565b7f273e27000000000000000000000000000000000000000000000000000000000060399290910191820152603c01949350505050565b60006001600160a01b03808716835280861660208401525083604083015260806060830152612cab60808301846128f4565b9695505050505050565b6001600160a01b0384168152826020820152606060408201526000612cdd60608301846128f4565b95945050505050565b602081526000611fa060208301846128f4565b60008219821115612d0c57612d0c612e16565b500190565b600060ff821660ff84168060ff03821115612d2e57612d2e612e16565b019392505050565b600082612d4557612d45612e2c565b500490565b6000816000190483118215151615612d6457612d64612e16565b500290565b600082821015612d7b57612d7b612e16565b500390565b60005b83811015612d9b578181015183820152602001612d83565b8381111561131e5750506000910152565b600181811c90821680612dc057607f821691505b60208210811415612de157634e487b7160e01b600052602260045260246000fd5b50919050565b6000600019821415612dfb57612dfb612e16565b5060010190565b600082612e1157612e11612e2c565b500690565b634e487b7160e01b600052601160045260246000fd5b634e487b7160e01b600052601260045260246000fd5b634e487b7160e01b600052603260045260246000fd5b634e487b7160e01b600052604160045260246000fd5b8015158114610c6e57600080fd5b6001600160e01b031981168114610c6e57600080fdfe4142434445464748494a4b4c4d4e4f505152535455565758595a6162636465666768696a6b6c6d6e6f707172737475767778797a303132333435363738392b2fa26469706673582212204e796018f077f494cbb93fbd2dfd727f5f8aea6e0dc11fcbbf53903c84fe7c5064736f6c63430008070033",
  "devdoc": {
    "kind": "dev",
    "methods": {
      "approve(address,uint256)": {
        "details": "See {IERC721-approve}."
      },
      "balanceOf(address)": {
        "details": "See {IERC721-balanceOf}."
      },
      "getApproved(uint256)": {
        "details": "See {IERC721-getApproved}."
      },
      "isApprovedForAll(address,address)": {
        "details": "See {IERC721-isApprovedForAll}."
      },
      "name()": {
        "details": "See {IERC721Metadata-name}."
      },
      "ownerOf(uint256)": {
        "details": "See {IERC721-ownerOf}."
      },
      "safeTransferFrom(address,address,uint256)": {
        "details": "See {IERC721-safeTransferFrom}."
      },
      "safeTransferFrom(address,address,uint256,bytes)": {
        "details": "See {IERC721-safeTransferFrom}."
      },
      "setApprovalForAll(address,bool)": {
        "details": "See {IERC721-setApprovalForAll}."
      },
      "supportsInterface(bytes4)": {
        "details": "See {IERC165-supportsInterface}."
      },
      "symbol()": {
        "details": "See {IERC721Metadata-symbol}."
      },
      "tokenURI(uint256)": {
        "details": "See {IERC721Metadata-tokenURI}."
      },
      "transferFrom(address,address,uint256)": {
        "details": "See {IERC721-transferFrom}."
      }
    },
    "version": 1
  },
  "userdoc": {
    "kind": "user",
    "methods": {},
    "version": 1
  },
  "storageLayout": {
    "storage": [
      {
        "astId": 369,
        "contract": "contracts/RandomSVG.sol:RandomSVG",
        "label": "_name",
        "offset": 0,
        "slot": "0",
        "type": "t_string_storage"
      },
      {
        "astId": 371,
        "contract": "contracts/RandomSVG.sol:RandomSVG",
        "label": "_symbol",
        "offset": 0,
        "slot": "1",
        "type": "t_string_storage"
      },
      {
        "astId": 375,
        "contract": "contracts/RandomSVG.sol:RandomSVG",
        "label": "_owners",
        "offset": 0,
        "slot": "2",
        "type": "t_mapping(t_uint256,t_address)"
      },
      {
        "astId": 379,
        "contract": "contracts/RandomSVG.sol:RandomSVG",
        "label": "_balances",
        "offset": 0,
        "slot": "3",
        "type": "t_mapping(t_address,t_uint256)"
      },
      {
        "astId": 383,
        "contract": "contracts/RandomSVG.sol:RandomSVG",
        "label": "_tokenApprovals",
        "offset": 0,
        "slot": "4",
        "type": "t_mapping(t_uint256,t_address)"
      },
      {
        "astId": 389,
        "contract": "contracts/RandomSVG.sol:RandomSVG",
        "label": "_operatorApprovals",
        "offset": 0,
        "slot": "5",
        "type": "t_mapping(t_address,t_mapping(t_address,t_bool))"
      },
      {
        "astId": 1306,
        "contract": "contracts/RandomSVG.sol:RandomSVG",
        "label": "_tokenURIs",
        "offset": 0,
        "slot": "6",
        "type": "t_mapping(t_uint256,t_string_storage)"
      },
      {
        "astId": 79,
        "contract": "contracts/RandomSVG.sol:RandomSVG",
        "label": "nonces",
        "offset": 0,
        "slot": "7",
        "type": "t_mapping(t_bytes32,t_uint256)"
      },
      {
        "astId": 3074,
        "contract": "contracts/RandomSVG.sol:RandomSVG",
        "label": "keyHash",
        "offset": 0,
        "slot": "8",
        "type": "t_bytes32"
      },
      {
        "astId": 3076,
        "contract": "contracts/RandomSVG.sol:RandomSVG",
        "label": "fee",
        "offset": 0,
        "slot": "9",
        "type": "t_uint256"
      },
      {
        "astId": 3078,
        "contract": "contracts/RandomSVG.sol:RandomSVG",
        "label": "tokenCounter",
        "offset": 0,
        "slot": "10",
        "type": "t_uint256"
      },
      {
        "astId": 3080,
        "contract": "contracts/RandomSVG.sol:RandomSVG",
        "label": "price",
        "offset": 0,
        "slot": "11",
        "type": "t_uint256"
      },
      {
        "astId": 3082,
        "contract": "contracts/RandomSVG.sol:RandomSVG",
        "label": "owner",
        "offset": 0,
        "slot": "12",
        "type": "t_address_payable"
      },
      {
        "astId": 3084,
        "contract": "contracts/RandomSVG.sol:RandomSVG",
        "label": "maxNumberOfPaths",
        "offset": 0,
        "slot": "13",
        "type": "t_uint256"
      },
      {
        "astId": 3086,
        "contract": "contracts/RandomSVG.sol:RandomSVG",
        "label": "maxNumberOfPathCommands",
        "offset": 0,
        "slot": "14",
        "type": "t_uint256"
      },
      {
        "astId": 3088,
        "contract": "contracts/RandomSVG.sol:RandomSVG",
        "label": "size",
        "offset": 0,
        "slot": "15",
        "type": "t_uint256"
      },
      {
        "astId": 3091,
        "contract": "contracts/RandomSVG.sol:RandomSVG",
        "label": "pathCommands",
        "offset": 0,
        "slot": "16",
        "type": "t_array(t_string_storage)dyn_storage"
      },
      {
        "astId": 3094,
        "contract": "contracts/RandomSVG.sol:RandomSVG",
        "label": "colors",
        "offset": 0,
        "slot": "17",
        "type": "t_array(t_string_storage)dyn_storage"
      },
      {
        "astId": 3098,
        "contract": "contracts/RandomSVG.sol:RandomSVG",
        "label": "requestIdToSender",
        "offset": 0,
        "slot": "18",
        "type": "t_mapping(t_bytes32,t_address)"
      },
      {
        "astId": 3102,
        "contract": "contracts/RandomSVG.sol:RandomSVG",
        "label": "requestIdToTokenId",
        "offset": 0,
        "slot": "19",
        "type": "t_mapping(t_bytes32,t_uint256)"
      },
      {
        "astId": 3106,
        "contract": "contracts/RandomSVG.sol:RandomSVG",
        "label": "tokenIdToRandomNumber",
        "offset": 0,
        "slot": "20",
        "type": "t_mapping(t_uint256,t_uint256)"
      }
    ],
    "types": {
      "t_address": {
        "encoding": "inplace",
        "label": "address",
        "numberOfBytes": "20"
      },
      "t_address_payable": {
        "encoding": "inplace",
        "label": "address payable",
        "numberOfBytes": "20"
      },
      "t_array(t_string_storage)dyn_storage": {
        "base": "t_string_storage",
        "encoding": "dynamic_array",
        "label": "string[]",
        "numberOfBytes": "32"
      },
      "t_bool": {
        "encoding": "inplace",
        "label": "bool",
        "numberOfBytes": "1"
      },
      "t_bytes32": {
        "encoding": "inplace",
        "label": "bytes32",
        "numberOfBytes": "32"
      },
      "t_mapping(t_address,t_bool)": {
        "encoding": "mapping",
        "key": "t_address",
        "label": "mapping(address => bool)",
        "numberOfBytes": "32",
        "value": "t_bool"
      },
      "t_mapping(t_address,t_mapping(t_address,t_bool))": {
        "encoding": "mapping",
        "key": "t_address",
        "label": "mapping(address => mapping(address => bool))",
        "numberOfBytes": "32",
        "value": "t_mapping(t_address,t_bool)"
      },
      "t_mapping(t_address,t_uint256)": {
        "encoding": "mapping",
        "key": "t_address",
        "label": "mapping(address => uint256)",
        "numberOfBytes": "32",
        "value": "t_uint256"
      },
      "t_mapping(t_bytes32,t_address)": {
        "encoding": "mapping",
        "key": "t_bytes32",
        "label": "mapping(bytes32 => address)",
        "numberOfBytes": "32",
        "value": "t_address"
      },
      "t_mapping(t_bytes32,t_uint256)": {
        "encoding": "mapping",
        "key": "t_bytes32",
        "label": "mapping(bytes32 => uint256)",
        "numberOfBytes": "32",
        "value": "t_uint256"
      },
      "t_mapping(t_uint256,t_address)": {
        "encoding": "mapping",
        "key": "t_uint256",
        "label": "mapping(uint256 => address)",
        "numberOfBytes": "32",
        "value": "t_address"
      },
      "t_mapping(t_uint256,t_string_storage)": {
        "encoding": "mapping",
        "key": "t_uint256",
        "label": "mapping(uint256 => string)",
        "numberOfBytes": "32",
        "value": "t_string_storage"
      },
      "t_mapping(t_uint256,t_uint256)": {
        "encoding": "mapping",
        "key": "t_uint256",
        "label": "mapping(uint256 => uint256)",
        "numberOfBytes": "32",
        "value": "t_uint256"
      },
      "t_string_storage": {
        "encoding": "bytes",
        "label": "string",
        "numberOfBytes": "32"
      },
      "t_uint256": {
        "encoding": "inplace",
        "label": "uint256",
        "numberOfBytes": "32"
      }
    }
  }
}